{
  "_format": "hh-sol-artifact-1",
  "contractName": "AgriChain",
  "sourceName": "contracts/SupplyChain.sol",
  "abi": [
    {
      "anonymous": false,
      "inputs": [
        {
          "indexed": false,
          "internalType": "string",
          "name": "stockId",
          "type": "string"
        },
        {
          "indexed": false,
          "internalType": "string",
          "name": "parentId",
          "type": "string"
        },
        {
          "indexed": false,
          "internalType": "uint256",
          "name": "qty",
          "type": "uint256"
        },
        {
          "indexed": false,
          "internalType": "uint256",
          "name": "price",
          "type": "uint256"
        },
        {
          "indexed": false,
          "internalType": "address",
          "name": "distributor",
          "type": "address"
        }
      ],
      "name": "DistributorBought",
      "type": "event"
    },
    {
      "anonymous": false,
      "inputs": [
        {
          "indexed": false,
          "internalType": "string",
          "name": "stockId",
          "type": "string"
        },
        {
          "indexed": false,
          "internalType": "string",
          "name": "name",
          "type": "string"
        },
        {
          "indexed": false,
          "internalType": "uint256",
          "name": "qty",
          "type": "uint256"
        },
        {
          "indexed": false,
          "internalType": "uint256",
          "name": "price",
          "type": "uint256"
        },
        {
          "indexed": false,
          "internalType": "address",
          "name": "farmer",
          "type": "address"
        }
      ],
      "name": "FarmerStockCreated",
      "type": "event"
    },
    {
      "anonymous": false,
      "inputs": [
        {
          "indexed": false,
          "internalType": "string",
          "name": "stockId",
          "type": "string"
        },
        {
          "indexed": false,
          "internalType": "string",
          "name": "newStockId",
          "type": "string"
        },
        {
          "indexed": false,
          "internalType": "uint256",
          "name": "qty",
          "type": "uint256"
        },
        {
          "indexed": false,
          "internalType": "uint256",
          "name": "price",
          "type": "uint256"
        },
        {
          "indexed": false,
          "internalType": "address",
          "name": "seller",
          "type": "address"
        },
        {
          "indexed": false,
          "internalType": "address",
          "name": "buyer",
          "type": "address"
        }
      ],
      "name": "StockSold",
      "type": "event"
    },
    {
      "inputs": [
        {
          "internalType": "string",
          "name": "stockId",
          "type": "string"
        },
        {
          "internalType": "string",
          "name": "name",
          "type": "string"
        },
        {
          "internalType": "uint256",
          "name": "qty",
          "type": "uint256"
        },
        {
          "internalType": "uint256",
          "name": "price",
          "type": "uint256"
        }
      ],
      "name": "createFarmerStock",
      "outputs": [],
      "stateMutability": "nonpayable",
      "type": "function"
    },
    {
      "inputs": [
        {
          "internalType": "string",
          "name": "parentId",
          "type": "string"
        },
        {
          "internalType": "string",
          "name": "newStockId",
          "type": "string"
        },
        {
          "internalType": "uint256",
          "name": "qty",
          "type": "uint256"
        }
      ],
      "name": "distributorBuy",
      "outputs": [],
      "stateMutability": "nonpayable",
      "type": "function"
    },
    {
      "inputs": [
        {
          "internalType": "string",
          "name": "stockId",
          "type": "string"
        }
      ],
      "name": "getStockHistory",
      "outputs": [
        {
          "internalType": "string[]",
          "name": "",
          "type": "string[]"
        },
        {
          "internalType": "uint256[]",
          "name": "",
          "type": "uint256[]"
        },
        {
          "internalType": "uint256[]",
          "name": "",
          "type": "uint256[]"
        }
      ],
      "stateMutability": "view",
      "type": "function"
    },
    {
      "inputs": [
        {
          "internalType": "string",
          "name": "parentId",
          "type": "string"
        },
        {
          "internalType": "string",
          "name": "newStockId",
          "type": "string"
        },
        {
          "internalType": "uint256",
          "name": "qty",
          "type": "uint256"
        },
        {
          "internalType": "uint256",
          "name": "newPrice",
          "type": "uint256"
        },
        {
          "internalType": "address",
          "name": "buyer",
          "type": "address"
        }
      ],
      "name": "sellStock",
      "outputs": [],
      "stateMutability": "nonpayable",
      "type": "function"
    },
    {
      "inputs": [
        {
          "internalType": "string",
          "name": "",
          "type": "string"
        }
      ],
      "name": "stocks",
      "outputs": [
        {
          "internalType": "string",
          "name": "stockId",
          "type": "string"
        },
        {
          "internalType": "string",
          "name": "name",
          "type": "string"
        },
        {
          "internalType": "uint256",
          "name": "quantity",
          "type": "uint256"
        },
        {
          "internalType": "uint256",
          "name": "unitPrice",
          "type": "uint256"
        },
        {
          "internalType": "address",
          "name": "owner",
          "type": "address"
        },
        {
          "internalType": "string",
          "name": "parentId",
          "type": "string"
        }
      ],
      "stateMutability": "view",
      "type": "function"
    }
  ],
  "bytecode": "0x608060405234801561001057600080fd5b506120e5806100206000396000f3fe608060405234801561001057600080fd5b50600436106100575760003560e01c80632d73a8a61461005c5780632efae33e1461007857806338adec51146100ad578063cf55b728146100c9578063ee7db892146100fb575b600080fd5b610076600480360381019061007191906110a6565b610117565b005b610092600480360381019061008d9190611145565b6103db565b6040516100a49695949392919061125d565b60405180910390f35b6100c760048036038101906100c291906112d3565b6105e5565b005b6100e360048036038101906100de9190611145565b6108c0565b6040516100f293929190611528565b60405180910390f35b610115600480360381019061011091906115a0565b610a77565b005b600073ffffffffffffffffffffffffffffffffffffffff1660008560405161013f919061168f565b908152602001604051809103902060040160009054906101000a900473ffffffffffffffffffffffffffffffffffffffff1673ffffffffffffffffffffffffffffffffffffffff16146101c7576040517f08c379a00000000000000000000000000000000000000000000000000000000081526004016101be906116f2565b60405180910390fd5b6000821161020a576040517f08c379a00000000000000000000000000000000000000000000000000000000081526004016102019061175e565b60405180910390fd5b6000811161024d576040517f08c379a0000000000000000000000000000000000000000000000000000000008152600401610244906117ca565b60405180910390fd5b6000808560405161025e919061168f565b908152602001604051809103902090508481600001908161027f91906119f6565b508381600101908161029191906119f6565b50828160020181905550818160030181905550338160040160006101000a81548173ffffffffffffffffffffffffffffffffffffffff021916908373ffffffffffffffffffffffffffffffffffffffff1602179055506040518060200160405280600081525081600501908161030791906119f6565b50806006018590806001815401808255809150506001900390600052602060002001600090919091909150908161033e91906119f6565b5080600701829080600181540180825580915050600190039060005260206000200160009091909190915055806008018390806001815401808255809150506001900390600052602060002001600090919091909150557f3071d34e9016ffeb8a8f7e3f91078ef4bbea519cf21b37163ef846f0a9ded74885858585336040516103cc959493929190611ac8565b60405180910390a15050505050565b60008180516020810182018051848252602083016020850120818352809550505050505060009150905080600001805461041490611819565b80601f016020809104026020016040519081016040528092919081815260200182805461044090611819565b801561048d5780601f106104625761010080835404028352916020019161048d565b820191906000526020600020905b81548152906001019060200180831161047057829003601f168201915b5050505050908060010180546104a290611819565b80601f01602080910402602001604051908101604052809291908181526020018280546104ce90611819565b801561051b5780601f106104f05761010080835404028352916020019161051b565b820191906000526020600020905b8154815290600101906020018083116104fe57829003601f168201915b5050505050908060020154908060030154908060040160009054906101000a900473ffffffffffffffffffffffffffffffffffffffff169080600501805461056290611819565b80601f016020809104026020016040519081016040528092919081815260200182805461058e90611819565b80156105db5780601f106105b0576101008083540402835291602001916105db565b820191906000526020600020905b8154815290600101906020018083116105be57829003601f168201915b5050505050905086565b600080846040516105f6919061168f565b90815260200160405180910390209050600073ffffffffffffffffffffffffffffffffffffffff168160040160009054906101000a900473ffffffffffffffffffffffffffffffffffffffff1673ffffffffffffffffffffffffffffffffffffffff1603610699576040517f08c379a000000000000000000000000000000000000000000000000000000000815260040161069090611b75565b60405180910390fd5b81816002015410156106e0576040517f08c379a00000000000000000000000000000000000000000000000000000000081526004016106d790611be1565b60405180910390fd5b818160020160008282546106f49190611c30565b925050819055506000808460405161070c919061168f565b908152602001604051809103902090508381600001908161072d91906119f6565b50816001018160010190816107429190611c8f565b5082816002018190555081600301548160030181905550338160040160006101000a81548173ffffffffffffffffffffffffffffffffffffffff021916908373ffffffffffffffffffffffffffffffffffffffff160217905550848160050190816107ad91906119f6565b5080600601859080600181540180825580915050600190039060005260206000200160009091909190915090816107e491906119f6565b50806006018490806001815401808255809150506001900390600052602060002001600090919091909150908161081b91906119f6565b508060070182600301549080600181540180825580915050600190039060005260206000200160009091909190915055806008018390806001815401808255809150506001900390600052602060002001600090919091909150557fcc78117b41cbf3214b9b65780db62d926b37f59f0b05a1aa801193a4879ee18a8486858560030154336040516108b1959493929190611ac8565b60405180910390a15050505050565b6060806060600080856040516108d6919061168f565b9081526020016040518091039020905080600601816007018260080182805480602002602001604051908101604052809291908181526020016000905b828210156109bf57838290600052602060002001805461093290611819565b80601f016020809104026020016040519081016040528092919081815260200182805461095e90611819565b80156109ab5780601f10610980576101008083540402835291602001916109ab565b820191906000526020600020905b81548152906001019060200180831161098e57829003601f168201915b505050505081526020019060010190610913565b50505050925081805480602002602001604051908101604052809291908181526020018280548015610a1057602002820191906000526020600020905b8154815260200190600101908083116109fc575b5050505050915080805480602002602001604051908101604052809291908181526020018280548015610a6257602002820191906000526020600020905b815481526020019060010190808311610a4e575b50505050509050935093509350509193909250565b60008086604051610a88919061168f565b908152602001604051809103902090503373ffffffffffffffffffffffffffffffffffffffff168160040160009054906101000a900473ffffffffffffffffffffffffffffffffffffffff1673ffffffffffffffffffffffffffffffffffffffff1614610b2a576040517f08c379a0000000000000000000000000000000000000000000000000000000008152600401610b2190611dc3565b60405180910390fd5b8381600201541015610b71576040517f08c379a0000000000000000000000000000000000000000000000000000000008152600401610b6890611e2f565b60405180910390fd5b8060030154831015610bb8576040517f08c379a0000000000000000000000000000000000000000000000000000000008152600401610baf90611e9b565b60405180910390fd5b606460788260030154610bcb9190611ebb565b610bd59190611f2c565b831115610c17576040517f08c379a0000000000000000000000000000000000000000000000000000000008152600401610c0e90611fa9565b60405180910390fd5b83816002016000828254610c2b9190611c30565b9250508190555060008086604051610c43919061168f565b9081526020016040518091039020905085816000019081610c6491906119f6565b5081600101816001019081610c799190611c8f565b50848160020181905550838160030181905550828160040160006101000a81548173ffffffffffffffffffffffffffffffffffffffff021916908373ffffffffffffffffffffffffffffffffffffffff16021790555086816005019081610ce091906119f6565b5060005b8260060180549050811015610d5c5781600601836006018281548110610d0d57610d0c611fc9565b5b90600052602060002001908060018154018082558091505060019003906000526020600020016000909190919091509081610d489190611c8f565b508080610d5490611ff8565b915050610ce4565b508060060186908060018154018082558091505060019003906000526020600020016000909190919091509081610d9391906119f6565b5060005b8260070180549050811015610e045781600701836007018281548110610dc057610dbf611fc9565b5b906000526020600020015490806001815401808255809150506001900390600052602060002001600090919091909150558080610dfc90611ff8565b915050610d97565b508060070184908060018154018082558091505060019003906000526020600020016000909190919091505560005b8260080180549050811015610ea05781600801836008018281548110610e5c57610e5b611fc9565b5b906000526020600020015490806001815401808255809150506001900390600052602060002001600090919091909150558080610e9890611ff8565b915050610e33565b50806008018590806001815401808255809150506001900390600052602060002001600090919091909150557f05d32a9ca74a63871c0c84d95d79252bc18117c32b6f9bc56d3780504146c28a878787873388604051610f0596959493929190612040565b60405180910390a150505050505050565b6000604051905090565b600080fd5b600080fd5b600080fd5b600080fd5b6000601f19601f8301169050919050565b7f4e487b7100000000000000000000000000000000000000000000000000000000600052604160045260246000fd5b610f7d82610f34565b810181811067ffffffffffffffff82111715610f9c57610f9b610f45565b5b80604052505050565b6000610faf610f16565b9050610fbb8282610f74565b919050565b600067ffffffffffffffff821115610fdb57610fda610f45565b5b610fe482610f34565b9050602081019050919050565b82818337600083830152505050565b600061101361100e84610fc0565b610fa5565b90508281526020810184848401111561102f5761102e610f2f565b5b61103a848285610ff1565b509392505050565b600082601f83011261105757611056610f2a565b5b8135611067848260208601611000565b91505092915050565b6000819050919050565b61108381611070565b811461108e57600080fd5b50565b6000813590506110a08161107a565b92915050565b600080600080608085870312156110c0576110bf610f20565b5b600085013567ffffffffffffffff8111156110de576110dd610f25565b5b6110ea87828801611042565b945050602085013567ffffffffffffffff81111561110b5761110a610f25565b5b61111787828801611042565b935050604061112887828801611091565b925050606061113987828801611091565b91505092959194509250565b60006020828403121561115b5761115a610f20565b5b600082013567ffffffffffffffff81111561117957611178610f25565b5b61118584828501611042565b91505092915050565b600081519050919050565b600082825260208201905092915050565b60005b838110156111c85780820151818401526020810190506111ad565b60008484015250505050565b60006111df8261118e565b6111e98185611199565b93506111f98185602086016111aa565b61120281610f34565b840191505092915050565b61121681611070565b82525050565b600073ffffffffffffffffffffffffffffffffffffffff82169050919050565b60006112478261121c565b9050919050565b6112578161123c565b82525050565b600060c082019050818103600083015261127781896111d4565b9050818103602083015261128b81886111d4565b905061129a604083018761120d565b6112a7606083018661120d565b6112b4608083018561124e565b81810360a08301526112c681846111d4565b9050979650505050505050565b6000806000606084860312156112ec576112eb610f20565b5b600084013567ffffffffffffffff81111561130a57611309610f25565b5b61131686828701611042565b935050602084013567ffffffffffffffff81111561133757611336610f25565b5b61134386828701611042565b925050604061135486828701611091565b9150509250925092565b600081519050919050565b600082825260208201905092915050565b6000819050602082019050919050565b600082825260208201905092915050565b60006113a68261118e565b6113b0818561138a565b93506113c08185602086016111aa565b6113c981610f34565b840191505092915050565b60006113e0838361139b565b905092915050565b6000602082019050919050565b60006114008261135e565b61140a8185611369565b93508360208202850161141c8561137a565b8060005b85811015611458578484038952815161143985826113d4565b9450611444836113e8565b925060208a01995050600181019050611420565b50829750879550505050505092915050565b600081519050919050565b600082825260208201905092915050565b6000819050602082019050919050565b61149f81611070565b82525050565b60006114b18383611496565b60208301905092915050565b6000602082019050919050565b60006114d58261146a565b6114df8185611475565b93506114ea83611486565b8060005b8381101561151b57815161150288826114a5565b975061150d836114bd565b9250506001810190506114ee565b5085935050505092915050565b6000606082019050818103600083015261154281866113f5565b9050818103602083015261155681856114ca565b9050818103604083015261156a81846114ca565b9050949350505050565b61157d8161123c565b811461158857600080fd5b50565b60008135905061159a81611574565b92915050565b600080600080600060a086880312156115bc576115bb610f20565b5b600086013567ffffffffffffffff8111156115da576115d9610f25565b5b6115e688828901611042565b955050602086013567ffffffffffffffff81111561160757611606610f25565b5b61161388828901611042565b945050604061162488828901611091565b935050606061163588828901611091565b92505060806116468882890161158b565b9150509295509295909350565b600081905092915050565b60006116698261118e565b6116738185611653565b93506116838185602086016111aa565b80840191505092915050565b600061169b828461165e565b915081905092915050565b7f53746f636b20494420616c726561647920657869737473000000000000000000600082015250565b60006116dc601783611199565b91506116e7826116a6565b602082019050919050565b6000602082019050818103600083015261170b816116cf565b9050919050565b7f496e76616c6964207175616e7469747900000000000000000000000000000000600082015250565b6000611748601083611199565b915061175382611712565b602082019050919050565b600060208201905081810360008301526117778161173b565b9050919050565b7f496e76616c696420707269636500000000000000000000000000000000000000600082015250565b60006117b4600d83611199565b91506117bf8261177e565b602082019050919050565b600060208201905081810360008301526117e3816117a7565b9050919050565b7f4e487b7100000000000000000000000000000000000000000000000000000000600052602260045260246000fd5b6000600282049050600182168061183157607f821691505b602082108103611844576118436117ea565b5b50919050565b60008190508160005260206000209050919050565b60006020601f8301049050919050565b600082821b905092915050565b6000600883026118ac7fffffffffffffffffffffffffffffffffffffffffffffffffffffffffffffffff8261186f565b6118b6868361186f565b95508019841693508086168417925050509392505050565b6000819050919050565b60006118f36118ee6118e984611070565b6118ce565b611070565b9050919050565b6000819050919050565b61190d836118d8565b611921611919826118fa565b84845461187c565b825550505050565b600090565b611936611929565b611941818484611904565b505050565b5b818110156119655761195a60008261192e565b600181019050611947565b5050565b601f8211156119aa5761197b8161184a565b6119848461185f565b81016020851015611993578190505b6119a761199f8561185f565b830182611946565b50505b505050565b600082821c905092915050565b60006119cd600019846008026119af565b1980831691505092915050565b60006119e683836119bc565b9150826002028217905092915050565b6119ff8261118e565b67ffffffffffffffff811115611a1857611a17610f45565b5b611a228254611819565b611a2d828285611969565b600060209050601f831160018114611a605760008415611a4e578287015190505b611a5885826119da565b865550611ac0565b601f198416611a6e8661184a565b60005b82811015611a9657848901518255600182019150602085019450602081019050611a71565b86831015611ab35784890151611aaf601f8916826119bc565b8355505b6001600288020188555050505b505050505050565b600060a0820190508181036000830152611ae281886111d4565b90508181036020830152611af681876111d4565b9050611b05604083018661120d565b611b12606083018561120d565b611b1f608083018461124e565b9695505050505050565b7f506172656e742073746f636b20646f6573206e6f742065786973740000000000600082015250565b6000611b5f601b83611199565b9150611b6a82611b29565b602082019050919050565b60006020820190508181036000830152611b8e81611b52565b9050919050565b7f4e6f7420656e6f7567682073746f636b00000000000000000000000000000000600082015250565b6000611bcb601083611199565b9150611bd682611b95565b602082019050919050565b60006020820190508181036000830152611bfa81611bbe565b9050919050565b7f4e487b7100000000000000000000000000000000000000000000000000000000600052601160045260246000fd5b6000611c3b82611070565b9150611c4683611070565b9250828203905081811115611c5e57611c5d611c01565b5b92915050565b600081549050611c7381611819565b9050919050565b60008190508160005260206000209050919050565b818103611c9d575050611d75565b611ca682611c64565b67ffffffffffffffff811115611cbf57611cbe610f45565b5b611cc98254611819565b611cd4828285611969565b6000601f831160018114611d035760008415611cf1578287015490505b611cfb85826119da565b865550611d6e565b601f198416611d1187611c7a565b9650611d1c8661184a565b60005b82811015611d4457848901548255600182019150600185019450602081019050611d1f565b86831015611d615784890154611d5d601f8916826119bc565b8355505b6001600288020188555050505b5050505050505b565b7f4e6f74206f776e6572206f662073746f636b0000000000000000000000000000600082015250565b6000611dad601283611199565b9150611db882611d77565b602082019050919050565b60006020820190508181036000830152611ddc81611da0565b9050919050565b7f4e6f7420656e6f756768207175616e7469747900000000000000000000000000600082015250565b6000611e19601383611199565b9150611e2482611de3565b602082019050919050565b60006020820190508181036000830152611e4881611e0c565b9050919050565b7f5072696365206d757374206265203e3d20636f73740000000000000000000000600082015250565b6000611e85601583611199565b9150611e9082611e4f565b602082019050919050565b60006020820190508181036000830152611eb481611e78565b9050919050565b6000611ec682611070565b9150611ed183611070565b9250828202611edf81611070565b91508282048414831517611ef657611ef5611c01565b5b5092915050565b7f4e487b7100000000000000000000000000000000000000000000000000000000600052601260045260246000fd5b6000611f3782611070565b9150611f4283611070565b925082611f5257611f51611efd565b5b828204905092915050565b7f4d617820323025206d617267696e20616c6c6f77656400000000000000000000600082015250565b6000611f93601683611199565b9150611f9e82611f5d565b602082019050919050565b60006020820190508181036000830152611fc281611f86565b9050919050565b7f4e487b7100000000000000000000000000000000000000000000000000000000600052603260045260246000fd5b600061200382611070565b91507fffffffffffffffffffffffffffffffffffffffffffffffffffffffffffffffff820361203557612034611c01565b5b600182019050919050565b600060c082019050818103600083015261205a81896111d4565b9050818103602083015261206e81886111d4565b905061207d604083018761120d565b61208a606083018661120d565b612097608083018561124e565b6120a460a083018461124e565b97965050505050505056fea2646970667358221220a8420a872e174d9868f81bb25e6a064d5dbc0d16ee57fa83491e4c69dcac4a3064736f6c63430008140033",
  "linkReferences": {},
  "deployedLinkReferences": {}
}