{"contracts/SupplyChain.sol":{"AgriChain":{"abi":[{"anonymous":false,"inputs":[{"indexed":false,"internalType":"string","name":"stockId","type":"string"},{"indexed":false,"internalType":"string","name":"parentId","type":"string"},{"indexed":false,"internalType":"uint256","name":"qty","type":"uint256"},{"indexed":false,"internalType":"uint256","name":"price","type":"uint256"},{"indexed":false,"internalType":"address","name":"distributor","type":"address"}],"name":"DistributorBought","type":"event"},{"anonymous":false,"inputs":[{"indexed":false,"internalType":"string","name":"stockId","type":"string"},{"indexed":false,"internalType":"string","name":"name","type":"string"},{"indexed":false,"internalType":"uint256","name":"qty","type":"uint256"},{"indexed":false,"internalType":"uint256","name":"price","type":"uint256"},{"indexed":false,"internalType":"address","name":"farmer","type":"address"}],"name":"FarmerStockCreated","type":"event"},{"anonymous":false,"inputs":[{"indexed":false,"internalType":"string","name":"stockId","type":"string"},{"indexed":false,"internalType":"string","name":"newStockId","type":"string"},{"indexed":false,"internalType":"uint256","name":"qty","type":"uint256"},{"indexed":false,"internalType":"uint256","name":"price","type":"uint256"},{"indexed":false,"internalType":"address","name":"seller","type":"address"},{"indexed":false,"internalType":"address","name":"buyer","type":"address"}],"name":"StockSold","type":"event"},{"inputs":[{"internalType":"string","name":"stockId","type":"string"},{"internalType":"string","name":"name","type":"string"},{"internalType":"uint256","name":"qty","type":"uint256"},{"internalType":"uint256","name":"price","type":"uint256"}],"name":"createFarmerStock","outputs":[],"stateMutability":"nonpayable","type":"function"},{"inputs":[{"internalType":"string","name":"parentId","type":"string"},{"internalType":"string","name":"newStockId","type":"string"},{"internalType":"uint256","name":"qty","type":"uint256"}],"name":"distributorBuy","outputs":[],"stateMutability":"nonpayable","type":"function"},{"inputs":[{"internalType":"string","name":"stockId","type":"string"}],"name":"getStockHistory","outputs":[{"internalType":"string[]","name":"","type":"string[]"},{"internalType":"uint256[]","name":"","type":"uint256[]"},{"internalType":"uint256[]","name":"","type":"uint256[]"}],"stateMutability":"view","type":"function"},{"inputs":[{"internalType":"string","name":"parentId","type":"string"},{"internalType":"string","name":"newStockId","type":"string"},{"internalType":"uint256","name":"qty","type":"uint256"},{"internalType":"uint256","name":"newPrice","type":"uint256"},{"internalType":"address","name":"buyer","type":"address"}],"name":"sellStock","outputs":[],"stateMutability":"nonpayable","type":"function"},{"inputs":[{"internalType":"string","name":"","type":"string"}],"name":"stocks","outputs":[{"internalType":"string","name":"stockId","type":"string"},{"internalType":"string","name":"name","type":"string"},{"internalType":"uint256","name":"quantity","type":"uint256"},{"internalType":"uint256","name":"unitPrice","type":"uint256"},{"internalType":"address","name":"owner","type":"address"},{"internalType":"string","name":"parentId","type":"string"}],"stateMutability":"view","type":"function"}],"evm":{"bytecode":{"linkReferences":{},"object":"608060405234801561001057600080fd5b506120e5806100206000396000f3fe608060405234801561001057600080fd5b50600436106100575760003560e01c80632d73a8a61461005c5780632efae33e1461007857806338adec51146100ad578063cf55b728146100c9578063ee7db892146100fb575b600080fd5b610076600480360381019061007191906110a6565b610117565b005b610092600480360381019061008d9190611145565b6103db565b6040516100a49695949392919061125d565b60405180910390f35b6100c760048036038101906100c291906112d3565b6105e5565b005b6100e360048036038101906100de9190611145565b6108c0565b6040516100f293929190611528565b60405180910390f35b610115600480360381019061011091906115a0565b610a77565b005b600073ffffffffffffffffffffffffffffffffffffffff1660008560405161013f919061168f565b908152602001604051809103902060040160009054906101000a900473ffffffffffffffffffffffffffffffffffffffff1673ffffffffffffffffffffffffffffffffffffffff16146101c7576040517f08c379a00000000000000000000000000000000000000000000000000000000081526004016101be906116f2565b60405180910390fd5b6000821161020a576040517f08c379a00000000000000000000000000000000000000000000000000000000081526004016102019061175e565b60405180910390fd5b6000811161024d576040517f08c379a0000000000000000000000000000000000000000000000000000000008152600401610244906117ca565b60405180910390fd5b6000808560405161025e919061168f565b908152602001604051809103902090508481600001908161027f91906119f6565b508381600101908161029191906119f6565b50828160020181905550818160030181905550338160040160006101000a81548173ffffffffffffffffffffffffffffffffffffffff021916908373ffffffffffffffffffffffffffffffffffffffff1602179055506040518060200160405280600081525081600501908161030791906119f6565b50806006018590806001815401808255809150506001900390600052602060002001600090919091909150908161033e91906119f6565b5080600701829080600181540180825580915050600190039060005260206000200160009091909190915055806008018390806001815401808255809150506001900390600052602060002001600090919091909150557f3071d34e9016ffeb8a8f7e3f91078ef4bbea519cf21b37163ef846f0a9ded74885858585336040516103cc959493929190611ac8565b60405180910390a15050505050565b60008180516020810182018051848252602083016020850120818352809550505050505060009150905080600001805461041490611819565b80601f016020809104026020016040519081016040528092919081815260200182805461044090611819565b801561048d5780601f106104625761010080835404028352916020019161048d565b820191906000526020600020905b81548152906001019060200180831161047057829003601f168201915b5050505050908060010180546104a290611819565b80601f01602080910402602001604051908101604052809291908181526020018280546104ce90611819565b801561051b5780601f106104f05761010080835404028352916020019161051b565b820191906000526020600020905b8154815290600101906020018083116104fe57829003601f168201915b5050505050908060020154908060030154908060040160009054906101000a900473ffffffffffffffffffffffffffffffffffffffff169080600501805461056290611819565b80601f016020809104026020016040519081016040528092919081815260200182805461058e90611819565b80156105db5780601f106105b0576101008083540402835291602001916105db565b820191906000526020600020905b8154815290600101906020018083116105be57829003601f168201915b5050505050905086565b600080846040516105f6919061168f565b90815260200160405180910390209050600073ffffffffffffffffffffffffffffffffffffffff168160040160009054906101000a900473ffffffffffffffffffffffffffffffffffffffff1673ffffffffffffffffffffffffffffffffffffffff1603610699576040517f08c379a000000000000000000000000000000000000000000000000000000000815260040161069090611b75565b60405180910390fd5b81816002015410156106e0576040517f08c379a00000000000000000000000000000000000000000000000000000000081526004016106d790611be1565b60405180910390fd5b818160020160008282546106f49190611c30565b925050819055506000808460405161070c919061168f565b908152602001604051809103902090508381600001908161072d91906119f6565b50816001018160010190816107429190611c8f565b5082816002018190555081600301548160030181905550338160040160006101000a81548173ffffffffffffffffffffffffffffffffffffffff021916908373ffffffffffffffffffffffffffffffffffffffff160217905550848160050190816107ad91906119f6565b5080600601859080600181540180825580915050600190039060005260206000200160009091909190915090816107e491906119f6565b50806006018490806001815401808255809150506001900390600052602060002001600090919091909150908161081b91906119f6565b508060070182600301549080600181540180825580915050600190039060005260206000200160009091909190915055806008018390806001815401808255809150506001900390600052602060002001600090919091909150557fcc78117b41cbf3214b9b65780db62d926b37f59f0b05a1aa801193a4879ee18a8486858560030154336040516108b1959493929190611ac8565b60405180910390a15050505050565b6060806060600080856040516108d6919061168f565b9081526020016040518091039020905080600601816007018260080182805480602002602001604051908101604052809291908181526020016000905b828210156109bf57838290600052602060002001805461093290611819565b80601f016020809104026020016040519081016040528092919081815260200182805461095e90611819565b80156109ab5780601f10610980576101008083540402835291602001916109ab565b820191906000526020600020905b81548152906001019060200180831161098e57829003601f168201915b505050505081526020019060010190610913565b50505050925081805480602002602001604051908101604052809291908181526020018280548015610a1057602002820191906000526020600020905b8154815260200190600101908083116109fc575b5050505050915080805480602002602001604051908101604052809291908181526020018280548015610a6257602002820191906000526020600020905b815481526020019060010190808311610a4e575b50505050509050935093509350509193909250565b60008086604051610a88919061168f565b908152602001604051809103902090503373ffffffffffffffffffffffffffffffffffffffff168160040160009054906101000a900473ffffffffffffffffffffffffffffffffffffffff1673ffffffffffffffffffffffffffffffffffffffff1614610b2a576040517f08c379a0000000000000000000000000000000000000000000000000000000008152600401610b2190611dc3565b60405180910390fd5b8381600201541015610b71576040517f08c379a0000000000000000000000000000000000000000000000000000000008152600401610b6890611e2f565b60405180910390fd5b8060030154831015610bb8576040517f08c379a0000000000000000000000000000000000000000000000000000000008152600401610baf90611e9b565b60405180910390fd5b606460788260030154610bcb9190611ebb565b610bd59190611f2c565b831115610c17576040517f08c379a0000000000000000000000000000000000000000000000000000000008152600401610c0e90611fa9565b60405180910390fd5b83816002016000828254610c2b9190611c30565b9250508190555060008086604051610c43919061168f565b9081526020016040518091039020905085816000019081610c6491906119f6565b5081600101816001019081610c799190611c8f565b50848160020181905550838160030181905550828160040160006101000a81548173ffffffffffffffffffffffffffffffffffffffff021916908373ffffffffffffffffffffffffffffffffffffffff16021790555086816005019081610ce091906119f6565b5060005b8260060180549050811015610d5c5781600601836006018281548110610d0d57610d0c611fc9565b5b90600052602060002001908060018154018082558091505060019003906000526020600020016000909190919091509081610d489190611c8f565b508080610d5490611ff8565b915050610ce4565b508060060186908060018154018082558091505060019003906000526020600020016000909190919091509081610d9391906119f6565b5060005b8260070180549050811015610e045781600701836007018281548110610dc057610dbf611fc9565b5b906000526020600020015490806001815401808255809150506001900390600052602060002001600090919091909150558080610dfc90611ff8565b915050610d97565b508060070184908060018154018082558091505060019003906000526020600020016000909190919091505560005b8260080180549050811015610ea05781600801836008018281548110610e5c57610e5b611fc9565b5b906000526020600020015490806001815401808255809150506001900390600052602060002001600090919091909150558080610e9890611ff8565b915050610e33565b50806008018590806001815401808255809150506001900390600052602060002001600090919091909150557f05d32a9ca74a63871c0c84d95d79252bc18117c32b6f9bc56d3780504146c28a878787873388604051610f0596959493929190612040565b60405180910390a150505050505050565b6000604051905090565b600080fd5b600080fd5b600080fd5b600080fd5b6000601f19601f8301169050919050565b7f4e487b7100000000000000000000000000000000000000000000000000000000600052604160045260246000fd5b610f7d82610f34565b810181811067ffffffffffffffff82111715610f9c57610f9b610f45565b5b80604052505050565b6000610faf610f16565b9050610fbb8282610f74565b919050565b600067ffffffffffffffff821115610fdb57610fda610f45565b5b610fe482610f34565b9050602081019050919050565b82818337600083830152505050565b600061101361100e84610fc0565b610fa5565b90508281526020810184848401111561102f5761102e610f2f565b5b61103a848285610ff1565b509392505050565b600082601f83011261105757611056610f2a565b5b8135611067848260208601611000565b91505092915050565b6000819050919050565b61108381611070565b811461108e57600080fd5b50565b6000813590506110a08161107a565b92915050565b600080600080608085870312156110c0576110bf610f20565b5b600085013567ffffffffffffffff8111156110de576110dd610f25565b5b6110ea87828801611042565b945050602085013567ffffffffffffffff81111561110b5761110a610f25565b5b61111787828801611042565b935050604061112887828801611091565b925050606061113987828801611091565b91505092959194509250565b60006020828403121561115b5761115a610f20565b5b600082013567ffffffffffffffff81111561117957611178610f25565b5b61118584828501611042565b91505092915050565b600081519050919050565b600082825260208201905092915050565b60005b838110156111c85780820151818401526020810190506111ad565b60008484015250505050565b60006111df8261118e565b6111e98185611199565b93506111f98185602086016111aa565b61120281610f34565b840191505092915050565b61121681611070565b82525050565b600073ffffffffffffffffffffffffffffffffffffffff82169050919050565b60006112478261121c565b9050919050565b6112578161123c565b82525050565b600060c082019050818103600083015261127781896111d4565b9050818103602083015261128b81886111d4565b905061129a604083018761120d565b6112a7606083018661120d565b6112b4608083018561124e565b81810360a08301526112c681846111d4565b9050979650505050505050565b6000806000606084860312156112ec576112eb610f20565b5b600084013567ffffffffffffffff81111561130a57611309610f25565b5b61131686828701611042565b935050602084013567ffffffffffffffff81111561133757611336610f25565b5b61134386828701611042565b925050604061135486828701611091565b9150509250925092565b600081519050919050565b600082825260208201905092915050565b6000819050602082019050919050565b600082825260208201905092915050565b60006113a68261118e565b6113b0818561138a565b93506113c08185602086016111aa565b6113c981610f34565b840191505092915050565b60006113e0838361139b565b905092915050565b6000602082019050919050565b60006114008261135e565b61140a8185611369565b93508360208202850161141c8561137a565b8060005b85811015611458578484038952815161143985826113d4565b9450611444836113e8565b925060208a01995050600181019050611420565b50829750879550505050505092915050565b600081519050919050565b600082825260208201905092915050565b6000819050602082019050919050565b61149f81611070565b82525050565b60006114b18383611496565b60208301905092915050565b6000602082019050919050565b60006114d58261146a565b6114df8185611475565b93506114ea83611486565b8060005b8381101561151b57815161150288826114a5565b975061150d836114bd565b9250506001810190506114ee565b5085935050505092915050565b6000606082019050818103600083015261154281866113f5565b9050818103602083015261155681856114ca565b9050818103604083015261156a81846114ca565b9050949350505050565b61157d8161123c565b811461158857600080fd5b50565b60008135905061159a81611574565b92915050565b600080600080600060a086880312156115bc576115bb610f20565b5b600086013567ffffffffffffffff8111156115da576115d9610f25565b5b6115e688828901611042565b955050602086013567ffffffffffffffff81111561160757611606610f25565b5b61161388828901611042565b945050604061162488828901611091565b935050606061163588828901611091565b92505060806116468882890161158b565b9150509295509295909350565b600081905092915050565b60006116698261118e565b6116738185611653565b93506116838185602086016111aa565b80840191505092915050565b600061169b828461165e565b915081905092915050565b7f53746f636b20494420616c726561647920657869737473000000000000000000600082015250565b60006116dc601783611199565b91506116e7826116a6565b602082019050919050565b6000602082019050818103600083015261170b816116cf565b9050919050565b7f496e76616c6964207175616e7469747900000000000000000000000000000000600082015250565b6000611748601083611199565b915061175382611712565b602082019050919050565b600060208201905081810360008301526117778161173b565b9050919050565b7f496e76616c696420707269636500000000000000000000000000000000000000600082015250565b60006117b4600d83611199565b91506117bf8261177e565b602082019050919050565b600060208201905081810360008301526117e3816117a7565b9050919050565b7f4e487b7100000000000000000000000000000000000000000000000000000000600052602260045260246000fd5b6000600282049050600182168061183157607f821691505b602082108103611844576118436117ea565b5b50919050565b60008190508160005260206000209050919050565b60006020601f8301049050919050565b600082821b905092915050565b6000600883026118ac7fffffffffffffffffffffffffffffffffffffffffffffffffffffffffffffffff8261186f565b6118b6868361186f565b95508019841693508086168417925050509392505050565b6000819050919050565b60006118f36118ee6118e984611070565b6118ce565b611070565b9050919050565b6000819050919050565b61190d836118d8565b611921611919826118fa565b84845461187c565b825550505050565b600090565b611936611929565b611941818484611904565b505050565b5b818110156119655761195a60008261192e565b600181019050611947565b5050565b601f8211156119aa5761197b8161184a565b6119848461185f565b81016020851015611993578190505b6119a761199f8561185f565b830182611946565b50505b505050565b600082821c905092915050565b60006119cd600019846008026119af565b1980831691505092915050565b60006119e683836119bc565b9150826002028217905092915050565b6119ff8261118e565b67ffffffffffffffff811115611a1857611a17610f45565b5b611a228254611819565b611a2d828285611969565b600060209050601f831160018114611a605760008415611a4e578287015190505b611a5885826119da565b865550611ac0565b601f198416611a6e8661184a565b60005b82811015611a9657848901518255600182019150602085019450602081019050611a71565b86831015611ab35784890151611aaf601f8916826119bc565b8355505b6001600288020188555050505b505050505050565b600060a0820190508181036000830152611ae281886111d4565b90508181036020830152611af681876111d4565b9050611b05604083018661120d565b611b12606083018561120d565b611b1f608083018461124e565b9695505050505050565b7f506172656e742073746f636b20646f6573206e6f742065786973740000000000600082015250565b6000611b5f601b83611199565b9150611b6a82611b29565b602082019050919050565b60006020820190508181036000830152611b8e81611b52565b9050919050565b7f4e6f7420656e6f7567682073746f636b00000000000000000000000000000000600082015250565b6000611bcb601083611199565b9150611bd682611b95565b602082019050919050565b60006020820190508181036000830152611bfa81611bbe565b9050919050565b7f4e487b7100000000000000000000000000000000000000000000000000000000600052601160045260246000fd5b6000611c3b82611070565b9150611c4683611070565b9250828203905081811115611c5e57611c5d611c01565b5b92915050565b600081549050611c7381611819565b9050919050565b60008190508160005260206000209050919050565b818103611c9d575050611d75565b611ca682611c64565b67ffffffffffffffff811115611cbf57611cbe610f45565b5b611cc98254611819565b611cd4828285611969565b6000601f831160018114611d035760008415611cf1578287015490505b611cfb85826119da565b865550611d6e565b601f198416611d1187611c7a565b9650611d1c8661184a565b60005b82811015611d4457848901548255600182019150600185019450602081019050611d1f565b86831015611d615784890154611d5d601f8916826119bc565b8355505b6001600288020188555050505b5050505050505b565b7f4e6f74206f776e6572206f662073746f636b0000000000000000000000000000600082015250565b6000611dad601283611199565b9150611db882611d77565b602082019050919050565b60006020820190508181036000830152611ddc81611da0565b9050919050565b7f4e6f7420656e6f756768207175616e7469747900000000000000000000000000600082015250565b6000611e19601383611199565b9150611e2482611de3565b602082019050919050565b60006020820190508181036000830152611e4881611e0c565b9050919050565b7f5072696365206d757374206265203e3d20636f73740000000000000000000000600082015250565b6000611e85601583611199565b9150611e9082611e4f565b602082019050919050565b60006020820190508181036000830152611eb481611e78565b9050919050565b6000611ec682611070565b9150611ed183611070565b9250828202611edf81611070565b91508282048414831517611ef657611ef5611c01565b5b5092915050565b7f4e487b7100000000000000000000000000000000000000000000000000000000600052601260045260246000fd5b6000611f3782611070565b9150611f4283611070565b925082611f5257611f51611efd565b5b828204905092915050565b7f4d617820323025206d617267696e20616c6c6f77656400000000000000000000600082015250565b6000611f93601683611199565b9150611f9e82611f5d565b602082019050919050565b60006020820190508181036000830152611fc281611f86565b9050919050565b7f4e487b7100000000000000000000000000000000000000000000000000000000600052603260045260246000fd5b600061200382611070565b91507fffffffffffffffffffffffffffffffffffffffffffffffffffffffffffffffff820361203557612034611c01565b5b600182019050919050565b600060c082019050818103600083015261205a81896111d4565b9050818103602083015261206e81886111d4565b905061207d604083018761120d565b61208a606083018661120d565b612097608083018561124e565b6120a460a083018461124e565b97965050505050505056fea2646970667358221220a8420a872e174d9868f81bb25e6a064d5dbc0d16ee57fa83491e4c69dcac4a3064736f6c63430008140033","opcodes":"PUSH1 0x80 PUSH1 0x40 MSTORE CALLVALUE DUP1 ISZERO PUSH2 0x10 JUMPI PUSH1 0x0 DUP1 REVERT JUMPDEST POP PUSH2 0x20E5 DUP1 PUSH2 0x20 PUSH1 0x0 CODECOPY PUSH1 0x0 RETURN INVALID PUSH1 0x80 PUSH1 0x40 MSTORE CALLVALUE DUP1 ISZERO PUSH2 0x10 JUMPI PUSH1 0x0 DUP1 REVERT JUMPDEST POP PUSH1 0x4 CALLDATASIZE LT PUSH2 0x57 JUMPI PUSH1 0x0 CALLDATALOAD PUSH1 0xE0 SHR DUP1 PUSH4 0x2D73A8A6 EQ PUSH2 0x5C JUMPI DUP1 PUSH4 0x2EFAE33E EQ PUSH2 0x78 JUMPI DUP1 PUSH4 0x38ADEC51 EQ PUSH2 0xAD JUMPI DUP1 PUSH4 0xCF55B728 EQ PUSH2 0xC9 JUMPI DUP1 PUSH4 0xEE7DB892 EQ PUSH2 0xFB JUMPI JUMPDEST PUSH1 0x0 DUP1 REVERT JUMPDEST PUSH2 0x76 PUSH1 0x4 DUP1 CALLDATASIZE SUB DUP2 ADD SWAP1 PUSH2 0x71 SWAP2 SWAP1 PUSH2 0x10A6 JUMP JUMPDEST PUSH2 0x117 JUMP JUMPDEST STOP JUMPDEST PUSH2 0x92 PUSH1 0x4 DUP1 CALLDATASIZE SUB DUP2 ADD SWAP1 PUSH2 0x8D SWAP2 SWAP1 PUSH2 0x1145 JUMP JUMPDEST PUSH2 0x3DB JUMP JUMPDEST PUSH1 0x40 MLOAD PUSH2 0xA4 SWAP7 SWAP6 SWAP5 SWAP4 SWAP3 SWAP2 SWAP1 PUSH2 0x125D JUMP JUMPDEST PUSH1 0x40 MLOAD DUP1 SWAP2 SUB SWAP1 RETURN JUMPDEST PUSH2 0xC7 PUSH1 0x4 DUP1 CALLDATASIZE SUB DUP2 ADD SWAP1 PUSH2 0xC2 SWAP2 SWAP1 PUSH2 0x12D3 JUMP JUMPDEST PUSH2 0x5E5 JUMP JUMPDEST STOP JUMPDEST PUSH2 0xE3 PUSH1 0x4 DUP1 CALLDATASIZE SUB DUP2 ADD SWAP1 PUSH2 0xDE SWAP2 SWAP1 PUSH2 0x1145 JUMP JUMPDEST PUSH2 0x8C0 JUMP JUMPDEST PUSH1 0x40 MLOAD PUSH2 0xF2 SWAP4 SWAP3 SWAP2 SWAP1 PUSH2 0x1528 JUMP JUMPDEST PUSH1 0x40 MLOAD DUP1 SWAP2 SUB SWAP1 RETURN JUMPDEST PUSH2 0x115 PUSH1 0x4 DUP1 CALLDATASIZE SUB DUP2 ADD SWAP1 PUSH2 0x110 SWAP2 SWAP1 PUSH2 0x15A0 JUMP JUMPDEST PUSH2 0xA77 JUMP JUMPDEST STOP JUMPDEST PUSH1 0x0 PUSH20 0xFFFFFFFFFFFFFFFFFFFFFFFFFFFFFFFFFFFFFFFF AND PUSH1 0x0 DUP6 PUSH1 0x40 MLOAD PUSH2 0x13F SWAP2 SWAP1 PUSH2 0x168F JUMP JUMPDEST SWAP1 DUP2 MSTORE PUSH1 0x20 ADD PUSH1 0x40 MLOAD DUP1 SWAP2 SUB SWAP1 KECCAK256 PUSH1 0x4 ADD PUSH1 0x0 SWAP1 SLOAD SWAP1 PUSH2 0x100 EXP SWAP1 DIV PUSH20 0xFFFFFFFFFFFFFFFFFFFFFFFFFFFFFFFFFFFFFFFF AND PUSH20 0xFFFFFFFFFFFFFFFFFFFFFFFFFFFFFFFFFFFFFFFF AND EQ PUSH2 0x1C7 JUMPI PUSH1 0x40 MLOAD PUSH32 0x8C379A000000000000000000000000000000000000000000000000000000000 DUP2 MSTORE PUSH1 0x4 ADD PUSH2 0x1BE SWAP1 PUSH2 0x16F2 JUMP JUMPDEST PUSH1 0x40 MLOAD DUP1 SWAP2 SUB SWAP1 REVERT JUMPDEST PUSH1 0x0 DUP3 GT PUSH2 0x20A JUMPI PUSH1 0x40 MLOAD PUSH32 0x8C379A000000000000000000000000000000000000000000000000000000000 DUP2 MSTORE PUSH1 0x4 ADD PUSH2 0x201 SWAP1 PUSH2 0x175E JUMP JUMPDEST PUSH1 0x40 MLOAD DUP1 SWAP2 SUB SWAP1 REVERT JUMPDEST PUSH1 0x0 DUP2 GT PUSH2 0x24D JUMPI PUSH1 0x40 MLOAD PUSH32 0x8C379A000000000000000000000000000000000000000000000000000000000 DUP2 MSTORE PUSH1 0x4 ADD PUSH2 0x244 SWAP1 PUSH2 0x17CA JUMP JUMPDEST PUSH1 0x40 MLOAD DUP1 SWAP2 SUB SWAP1 REVERT JUMPDEST PUSH1 0x0 DUP1 DUP6 PUSH1 0x40 MLOAD PUSH2 0x25E SWAP2 SWAP1 PUSH2 0x168F JUMP JUMPDEST SWAP1 DUP2 MSTORE PUSH1 0x20 ADD PUSH1 0x40 MLOAD DUP1 SWAP2 SUB SWAP1 KECCAK256 SWAP1 POP DUP5 DUP2 PUSH1 0x0 ADD SWAP1 DUP2 PUSH2 0x27F SWAP2 SWAP1 PUSH2 0x19F6 JUMP JUMPDEST POP DUP4 DUP2 PUSH1 0x1 ADD SWAP1 DUP2 PUSH2 0x291 SWAP2 SWAP1 PUSH2 0x19F6 JUMP JUMPDEST POP DUP3 DUP2 PUSH1 0x2 ADD DUP2 SWAP1 SSTORE POP DUP2 DUP2 PUSH1 0x3 ADD DUP2 SWAP1 SSTORE POP CALLER DUP2 PUSH1 0x4 ADD PUSH1 0x0 PUSH2 0x100 EXP DUP2 SLOAD DUP2 PUSH20 0xFFFFFFFFFFFFFFFFFFFFFFFFFFFFFFFFFFFFFFFF MUL NOT AND SWAP1 DUP4 PUSH20 0xFFFFFFFFFFFFFFFFFFFFFFFFFFFFFFFFFFFFFFFF AND MUL OR SWAP1 SSTORE POP PUSH1 0x40 MLOAD DUP1 PUSH1 0x20 ADD PUSH1 0x40 MSTORE DUP1 PUSH1 0x0 DUP2 MSTORE POP DUP2 PUSH1 0x5 ADD SWAP1 DUP2 PUSH2 0x307 SWAP2 SWAP1 PUSH2 0x19F6 JUMP JUMPDEST POP DUP1 PUSH1 0x6 ADD DUP6 SWAP1 DUP1 PUSH1 0x1 DUP2 SLOAD ADD DUP1 DUP3 SSTORE DUP1 SWAP2 POP POP PUSH1 0x1 SWAP1 SUB SWAP1 PUSH1 0x0 MSTORE PUSH1 0x20 PUSH1 0x0 KECCAK256 ADD PUSH1 0x0 SWAP1 SWAP2 SWAP1 SWAP2 SWAP1 SWAP2 POP SWAP1 DUP2 PUSH2 0x33E SWAP2 SWAP1 PUSH2 0x19F6 JUMP JUMPDEST POP DUP1 PUSH1 0x7 ADD DUP3 SWAP1 DUP1 PUSH1 0x1 DUP2 SLOAD ADD DUP1 DUP3 SSTORE DUP1 SWAP2 POP POP PUSH1 0x1 SWAP1 SUB SWAP1 PUSH1 0x0 MSTORE PUSH1 0x20 PUSH1 0x0 KECCAK256 ADD PUSH1 0x0 SWAP1 SWAP2 SWAP1 SWAP2 SWAP1 SWAP2 POP SSTORE DUP1 PUSH1 0x8 ADD DUP4 SWAP1 DUP1 PUSH1 0x1 DUP2 SLOAD ADD DUP1 DUP3 SSTORE DUP1 SWAP2 POP POP PUSH1 0x1 SWAP1 SUB SWAP1 PUSH1 0x0 MSTORE PUSH1 0x20 PUSH1 0x0 KECCAK256 ADD PUSH1 0x0 SWAP1 SWAP2 SWAP1 SWAP2 SWAP1 SWAP2 POP SSTORE PUSH32 0x3071D34E9016FFEB8A8F7E3F91078EF4BBEA519CF21B37163EF846F0A9DED748 DUP6 DUP6 DUP6 DUP6 CALLER PUSH1 0x40 MLOAD PUSH2 0x3CC SWAP6 SWAP5 SWAP4 SWAP3 SWAP2 SWAP1 PUSH2 0x1AC8 JUMP JUMPDEST PUSH1 0x40 MLOAD DUP1 SWAP2 SUB SWAP1 LOG1 POP POP POP POP POP JUMP JUMPDEST PUSH1 0x0 DUP2 DUP1 MLOAD PUSH1 0x20 DUP2 ADD DUP3 ADD DUP1 MLOAD DUP5 DUP3 MSTORE PUSH1 0x20 DUP4 ADD PUSH1 0x20 DUP6 ADD KECCAK256 DUP2 DUP4 MSTORE DUP1 SWAP6 POP POP POP POP POP POP PUSH1 0x0 SWAP2 POP SWAP1 POP DUP1 PUSH1 0x0 ADD DUP1 SLOAD PUSH2 0x414 SWAP1 PUSH2 0x1819 JUMP JUMPDEST DUP1 PUSH1 0x1F ADD PUSH1 0x20 DUP1 SWAP2 DIV MUL PUSH1 0x20 ADD PUSH1 0x40 MLOAD SWAP1 DUP2 ADD PUSH1 0x40 MSTORE DUP1 SWAP3 SWAP2 SWAP1 DUP2 DUP2 MSTORE PUSH1 0x20 ADD DUP3 DUP1 SLOAD PUSH2 0x440 SWAP1 PUSH2 0x1819 JUMP JUMPDEST DUP1 ISZERO PUSH2 0x48D JUMPI DUP1 PUSH1 0x1F LT PUSH2 0x462 JUMPI PUSH2 0x100 DUP1 DUP4 SLOAD DIV MUL DUP4 MSTORE SWAP2 PUSH1 0x20 ADD SWAP2 PUSH2 0x48D JUMP JUMPDEST DUP3 ADD SWAP2 SWAP1 PUSH1 0x0 MSTORE PUSH1 0x20 PUSH1 0x0 KECCAK256 SWAP1 JUMPDEST DUP2 SLOAD DUP2 MSTORE SWAP1 PUSH1 0x1 ADD SWAP1 PUSH1 0x20 ADD DUP1 DUP4 GT PUSH2 0x470 JUMPI DUP3 SWAP1 SUB PUSH1 0x1F AND DUP3 ADD SWAP2 JUMPDEST POP POP POP POP POP SWAP1 DUP1 PUSH1 0x1 ADD DUP1 SLOAD PUSH2 0x4A2 SWAP1 PUSH2 0x1819 JUMP JUMPDEST DUP1 PUSH1 0x1F ADD PUSH1 0x20 DUP1 SWAP2 DIV MUL PUSH1 0x20 ADD PUSH1 0x40 MLOAD SWAP1 DUP2 ADD PUSH1 0x40 MSTORE DUP1 SWAP3 SWAP2 SWAP1 DUP2 DUP2 MSTORE PUSH1 0x20 ADD DUP3 DUP1 SLOAD PUSH2 0x4CE SWAP1 PUSH2 0x1819 JUMP JUMPDEST DUP1 ISZERO PUSH2 0x51B JUMPI DUP1 PUSH1 0x1F LT PUSH2 0x4F0 JUMPI PUSH2 0x100 DUP1 DUP4 SLOAD DIV MUL DUP4 MSTORE SWAP2 PUSH1 0x20 ADD SWAP2 PUSH2 0x51B JUMP JUMPDEST DUP3 ADD SWAP2 SWAP1 PUSH1 0x0 MSTORE PUSH1 0x20 PUSH1 0x0 KECCAK256 SWAP1 JUMPDEST DUP2 SLOAD DUP2 MSTORE SWAP1 PUSH1 0x1 ADD SWAP1 PUSH1 0x20 ADD DUP1 DUP4 GT PUSH2 0x4FE JUMPI DUP3 SWAP1 SUB PUSH1 0x1F AND DUP3 ADD SWAP2 JUMPDEST POP POP POP POP POP SWAP1 DUP1 PUSH1 0x2 ADD SLOAD SWAP1 DUP1 PUSH1 0x3 ADD SLOAD SWAP1 DUP1 PUSH1 0x4 ADD PUSH1 0x0 SWAP1 SLOAD SWAP1 PUSH2 0x100 EXP SWAP1 DIV PUSH20 0xFFFFFFFFFFFFFFFFFFFFFFFFFFFFFFFFFFFFFFFF AND SWAP1 DUP1 PUSH1 0x5 ADD DUP1 SLOAD PUSH2 0x562 SWAP1 PUSH2 0x1819 JUMP JUMPDEST DUP1 PUSH1 0x1F ADD PUSH1 0x20 DUP1 SWAP2 DIV MUL PUSH1 0x20 ADD PUSH1 0x40 MLOAD SWAP1 DUP2 ADD PUSH1 0x40 MSTORE DUP1 SWAP3 SWAP2 SWAP1 DUP2 DUP2 MSTORE PUSH1 0x20 ADD DUP3 DUP1 SLOAD PUSH2 0x58E SWAP1 PUSH2 0x1819 JUMP JUMPDEST DUP1 ISZERO PUSH2 0x5DB JUMPI DUP1 PUSH1 0x1F LT PUSH2 0x5B0 JUMPI PUSH2 0x100 DUP1 DUP4 SLOAD DIV MUL DUP4 MSTORE SWAP2 PUSH1 0x20 ADD SWAP2 PUSH2 0x5DB JUMP JUMPDEST DUP3 ADD SWAP2 SWAP1 PUSH1 0x0 MSTORE PUSH1 0x20 PUSH1 0x0 KECCAK256 SWAP1 JUMPDEST DUP2 SLOAD DUP2 MSTORE SWAP1 PUSH1 0x1 ADD SWAP1 PUSH1 0x20 ADD DUP1 DUP4 GT PUSH2 0x5BE JUMPI DUP3 SWAP1 SUB PUSH1 0x1F AND DUP3 ADD SWAP2 JUMPDEST POP POP POP POP POP SWAP1 POP DUP7 JUMP JUMPDEST PUSH1 0x0 DUP1 DUP5 PUSH1 0x40 MLOAD PUSH2 0x5F6 SWAP2 SWAP1 PUSH2 0x168F JUMP JUMPDEST SWAP1 DUP2 MSTORE PUSH1 0x20 ADD PUSH1 0x40 MLOAD DUP1 SWAP2 SUB SWAP1 KECCAK256 SWAP1 POP PUSH1 0x0 PUSH20 0xFFFFFFFFFFFFFFFFFFFFFFFFFFFFFFFFFFFFFFFF AND DUP2 PUSH1 0x4 ADD PUSH1 0x0 SWAP1 SLOAD SWAP1 PUSH2 0x100 EXP SWAP1 DIV PUSH20 0xFFFFFFFFFFFFFFFFFFFFFFFFFFFFFFFFFFFFFFFF AND PUSH20 0xFFFFFFFFFFFFFFFFFFFFFFFFFFFFFFFFFFFFFFFF AND SUB PUSH2 0x699 JUMPI PUSH1 0x40 MLOAD PUSH32 0x8C379A000000000000000000000000000000000000000000000000000000000 DUP2 MSTORE PUSH1 0x4 ADD PUSH2 0x690 SWAP1 PUSH2 0x1B75 JUMP JUMPDEST PUSH1 0x40 MLOAD DUP1 SWAP2 SUB SWAP1 REVERT JUMPDEST DUP2 DUP2 PUSH1 0x2 ADD SLOAD LT ISZERO PUSH2 0x6E0 JUMPI PUSH1 0x40 MLOAD PUSH32 0x8C379A000000000000000000000000000000000000000000000000000000000 DUP2 MSTORE PUSH1 0x4 ADD PUSH2 0x6D7 SWAP1 PUSH2 0x1BE1 JUMP JUMPDEST PUSH1 0x40 MLOAD DUP1 SWAP2 SUB SWAP1 REVERT JUMPDEST DUP2 DUP2 PUSH1 0x2 ADD PUSH1 0x0 DUP3 DUP3 SLOAD PUSH2 0x6F4 SWAP2 SWAP1 PUSH2 0x1C30 JUMP JUMPDEST SWAP3 POP POP DUP2 SWAP1 SSTORE POP PUSH1 0x0 DUP1 DUP5 PUSH1 0x40 MLOAD PUSH2 0x70C SWAP2 SWAP1 PUSH2 0x168F JUMP JUMPDEST SWAP1 DUP2 MSTORE PUSH1 0x20 ADD PUSH1 0x40 MLOAD DUP1 SWAP2 SUB SWAP1 KECCAK256 SWAP1 POP DUP4 DUP2 PUSH1 0x0 ADD SWAP1 DUP2 PUSH2 0x72D SWAP2 SWAP1 PUSH2 0x19F6 JUMP JUMPDEST POP DUP2 PUSH1 0x1 ADD DUP2 PUSH1 0x1 ADD SWAP1 DUP2 PUSH2 0x742 SWAP2 SWAP1 PUSH2 0x1C8F JUMP JUMPDEST POP DUP3 DUP2 PUSH1 0x2 ADD DUP2 SWAP1 SSTORE POP DUP2 PUSH1 0x3 ADD SLOAD DUP2 PUSH1 0x3 ADD DUP2 SWAP1 SSTORE POP CALLER DUP2 PUSH1 0x4 ADD PUSH1 0x0 PUSH2 0x100 EXP DUP2 SLOAD DUP2 PUSH20 0xFFFFFFFFFFFFFFFFFFFFFFFFFFFFFFFFFFFFFFFF MUL NOT AND SWAP1 DUP4 PUSH20 0xFFFFFFFFFFFFFFFFFFFFFFFFFFFFFFFFFFFFFFFF AND MUL OR SWAP1 SSTORE POP DUP5 DUP2 PUSH1 0x5 ADD SWAP1 DUP2 PUSH2 0x7AD SWAP2 SWAP1 PUSH2 0x19F6 JUMP JUMPDEST POP DUP1 PUSH1 0x6 ADD DUP6 SWAP1 DUP1 PUSH1 0x1 DUP2 SLOAD ADD DUP1 DUP3 SSTORE DUP1 SWAP2 POP POP PUSH1 0x1 SWAP1 SUB SWAP1 PUSH1 0x0 MSTORE PUSH1 0x20 PUSH1 0x0 KECCAK256 ADD PUSH1 0x0 SWAP1 SWAP2 SWAP1 SWAP2 SWAP1 SWAP2 POP SWAP1 DUP2 PUSH2 0x7E4 SWAP2 SWAP1 PUSH2 0x19F6 JUMP JUMPDEST POP DUP1 PUSH1 0x6 ADD DUP5 SWAP1 DUP1 PUSH1 0x1 DUP2 SLOAD ADD DUP1 DUP3 SSTORE DUP1 SWAP2 POP POP PUSH1 0x1 SWAP1 SUB SWAP1 PUSH1 0x0 MSTORE PUSH1 0x20 PUSH1 0x0 KECCAK256 ADD PUSH1 0x0 SWAP1 SWAP2 SWAP1 SWAP2 SWAP1 SWAP2 POP SWAP1 DUP2 PUSH2 0x81B SWAP2 SWAP1 PUSH2 0x19F6 JUMP JUMPDEST POP DUP1 PUSH1 0x7 ADD DUP3 PUSH1 0x3 ADD SLOAD SWAP1 DUP1 PUSH1 0x1 DUP2 SLOAD ADD DUP1 DUP3 SSTORE DUP1 SWAP2 POP POP PUSH1 0x1 SWAP1 SUB SWAP1 PUSH1 0x0 MSTORE PUSH1 0x20 PUSH1 0x0 KECCAK256 ADD PUSH1 0x0 SWAP1 SWAP2 SWAP1 SWAP2 SWAP1 SWAP2 POP SSTORE DUP1 PUSH1 0x8 ADD DUP4 SWAP1 DUP1 PUSH1 0x1 DUP2 SLOAD ADD DUP1 DUP3 SSTORE DUP1 SWAP2 POP POP PUSH1 0x1 SWAP1 SUB SWAP1 PUSH1 0x0 MSTORE PUSH1 0x20 PUSH1 0x0 KECCAK256 ADD PUSH1 0x0 SWAP1 SWAP2 SWAP1 SWAP2 SWAP1 SWAP2 POP SSTORE PUSH32 0xCC78117B41CBF3214B9B65780DB62D926B37F59F0B05A1AA801193A4879EE18A DUP5 DUP7 DUP6 DUP6 PUSH1 0x3 ADD SLOAD CALLER PUSH1 0x40 MLOAD PUSH2 0x8B1 SWAP6 SWAP5 SWAP4 SWAP3 SWAP2 SWAP1 PUSH2 0x1AC8 JUMP JUMPDEST PUSH1 0x40 MLOAD DUP1 SWAP2 SUB SWAP1 LOG1 POP POP POP POP POP JUMP JUMPDEST PUSH1 0x60 DUP1 PUSH1 0x60 PUSH1 0x0 DUP1 DUP6 PUSH1 0x40 MLOAD PUSH2 0x8D6 SWAP2 SWAP1 PUSH2 0x168F JUMP JUMPDEST SWAP1 DUP2 MSTORE PUSH1 0x20 ADD PUSH1 0x40 MLOAD DUP1 SWAP2 SUB SWAP1 KECCAK256 SWAP1 POP DUP1 PUSH1 0x6 ADD DUP2 PUSH1 0x7 ADD DUP3 PUSH1 0x8 ADD DUP3 DUP1 SLOAD DUP1 PUSH1 0x20 MUL PUSH1 0x20 ADD PUSH1 0x40 MLOAD SWAP1 DUP2 ADD PUSH1 0x40 MSTORE DUP1 SWAP3 SWAP2 SWAP1 DUP2 DUP2 MSTORE PUSH1 0x20 ADD PUSH1 0x0 SWAP1 JUMPDEST DUP3 DUP3 LT ISZERO PUSH2 0x9BF JUMPI DUP4 DUP3 SWAP1 PUSH1 0x0 MSTORE PUSH1 0x20 PUSH1 0x0 KECCAK256 ADD DUP1 SLOAD PUSH2 0x932 SWAP1 PUSH2 0x1819 JUMP JUMPDEST DUP1 PUSH1 0x1F ADD PUSH1 0x20 DUP1 SWAP2 DIV MUL PUSH1 0x20 ADD PUSH1 0x40 MLOAD SWAP1 DUP2 ADD PUSH1 0x40 MSTORE DUP1 SWAP3 SWAP2 SWAP1 DUP2 DUP2 MSTORE PUSH1 0x20 ADD DUP3 DUP1 SLOAD PUSH2 0x95E SWAP1 PUSH2 0x1819 JUMP JUMPDEST DUP1 ISZERO PUSH2 0x9AB JUMPI DUP1 PUSH1 0x1F LT PUSH2 0x980 JUMPI PUSH2 0x100 DUP1 DUP4 SLOAD DIV MUL DUP4 MSTORE SWAP2 PUSH1 0x20 ADD SWAP2 PUSH2 0x9AB JUMP JUMPDEST DUP3 ADD SWAP2 SWAP1 PUSH1 0x0 MSTORE PUSH1 0x20 PUSH1 0x0 KECCAK256 SWAP1 JUMPDEST DUP2 SLOAD DUP2 MSTORE SWAP1 PUSH1 0x1 ADD SWAP1 PUSH1 0x20 ADD DUP1 DUP4 GT PUSH2 0x98E JUMPI DUP3 SWAP1 SUB PUSH1 0x1F AND DUP3 ADD SWAP2 JUMPDEST POP POP POP POP POP DUP2 MSTORE PUSH1 0x20 ADD SWAP1 PUSH1 0x1 ADD SWAP1 PUSH2 0x913 JUMP JUMPDEST POP POP POP POP SWAP3 POP DUP2 DUP1 SLOAD DUP1 PUSH1 0x20 MUL PUSH1 0x20 ADD PUSH1 0x40 MLOAD SWAP1 DUP2 ADD PUSH1 0x40 MSTORE DUP1 SWAP3 SWAP2 SWAP1 DUP2 DUP2 MSTORE PUSH1 0x20 ADD DUP3 DUP1 SLOAD DUP1 ISZERO PUSH2 0xA10 JUMPI PUSH1 0x20 MUL DUP3 ADD SWAP2 SWAP1 PUSH1 0x0 MSTORE PUSH1 0x20 PUSH1 0x0 KECCAK256 SWAP1 JUMPDEST DUP2 SLOAD DUP2 MSTORE PUSH1 0x20 ADD SWAP1 PUSH1 0x1 ADD SWAP1 DUP1 DUP4 GT PUSH2 0x9FC JUMPI JUMPDEST POP POP POP POP POP SWAP2 POP DUP1 DUP1 SLOAD DUP1 PUSH1 0x20 MUL PUSH1 0x20 ADD PUSH1 0x40 MLOAD SWAP1 DUP2 ADD PUSH1 0x40 MSTORE DUP1 SWAP3 SWAP2 SWAP1 DUP2 DUP2 MSTORE PUSH1 0x20 ADD DUP3 DUP1 SLOAD DUP1 ISZERO PUSH2 0xA62 JUMPI PUSH1 0x20 MUL DUP3 ADD SWAP2 SWAP1 PUSH1 0x0 MSTORE PUSH1 0x20 PUSH1 0x0 KECCAK256 SWAP1 JUMPDEST DUP2 SLOAD DUP2 MSTORE PUSH1 0x20 ADD SWAP1 PUSH1 0x1 ADD SWAP1 DUP1 DUP4 GT PUSH2 0xA4E JUMPI JUMPDEST POP POP POP POP POP SWAP1 POP SWAP4 POP SWAP4 POP SWAP4 POP POP SWAP2 SWAP4 SWAP1 SWAP3 POP JUMP JUMPDEST PUSH1 0x0 DUP1 DUP7 PUSH1 0x40 MLOAD PUSH2 0xA88 SWAP2 SWAP1 PUSH2 0x168F JUMP JUMPDEST SWAP1 DUP2 MSTORE PUSH1 0x20 ADD PUSH1 0x40 MLOAD DUP1 SWAP2 SUB SWAP1 KECCAK256 SWAP1 POP CALLER PUSH20 0xFFFFFFFFFFFFFFFFFFFFFFFFFFFFFFFFFFFFFFFF AND DUP2 PUSH1 0x4 ADD PUSH1 0x0 SWAP1 SLOAD SWAP1 PUSH2 0x100 EXP SWAP1 DIV PUSH20 0xFFFFFFFFFFFFFFFFFFFFFFFFFFFFFFFFFFFFFFFF AND PUSH20 0xFFFFFFFFFFFFFFFFFFFFFFFFFFFFFFFFFFFFFFFF AND EQ PUSH2 0xB2A JUMPI PUSH1 0x40 MLOAD PUSH32 0x8C379A000000000000000000000000000000000000000000000000000000000 DUP2 MSTORE PUSH1 0x4 ADD PUSH2 0xB21 SWAP1 PUSH2 0x1DC3 JUMP JUMPDEST PUSH1 0x40 MLOAD DUP1 SWAP2 SUB SWAP1 REVERT JUMPDEST DUP4 DUP2 PUSH1 0x2 ADD SLOAD LT ISZERO PUSH2 0xB71 JUMPI PUSH1 0x40 MLOAD PUSH32 0x8C379A000000000000000000000000000000000000000000000000000000000 DUP2 MSTORE PUSH1 0x4 ADD PUSH2 0xB68 SWAP1 PUSH2 0x1E2F JUMP JUMPDEST PUSH1 0x40 MLOAD DUP1 SWAP2 SUB SWAP1 REVERT JUMPDEST DUP1 PUSH1 0x3 ADD SLOAD DUP4 LT ISZERO PUSH2 0xBB8 JUMPI PUSH1 0x40 MLOAD PUSH32 0x8C379A000000000000000000000000000000000000000000000000000000000 DUP2 MSTORE PUSH1 0x4 ADD PUSH2 0xBAF SWAP1 PUSH2 0x1E9B JUMP JUMPDEST PUSH1 0x40 MLOAD DUP1 SWAP2 SUB SWAP1 REVERT JUMPDEST PUSH1 0x64 PUSH1 0x78 DUP3 PUSH1 0x3 ADD SLOAD PUSH2 0xBCB SWAP2 SWAP1 PUSH2 0x1EBB JUMP JUMPDEST PUSH2 0xBD5 SWAP2 SWAP1 PUSH2 0x1F2C JUMP JUMPDEST DUP4 GT ISZERO PUSH2 0xC17 JUMPI PUSH1 0x40 MLOAD PUSH32 0x8C379A000000000000000000000000000000000000000000000000000000000 DUP2 MSTORE PUSH1 0x4 ADD PUSH2 0xC0E SWAP1 PUSH2 0x1FA9 JUMP JUMPDEST PUSH1 0x40 MLOAD DUP1 SWAP2 SUB SWAP1 REVERT JUMPDEST DUP4 DUP2 PUSH1 0x2 ADD PUSH1 0x0 DUP3 DUP3 SLOAD PUSH2 0xC2B SWAP2 SWAP1 PUSH2 0x1C30 JUMP JUMPDEST SWAP3 POP POP DUP2 SWAP1 SSTORE POP PUSH1 0x0 DUP1 DUP7 PUSH1 0x40 MLOAD PUSH2 0xC43 SWAP2 SWAP1 PUSH2 0x168F JUMP JUMPDEST SWAP1 DUP2 MSTORE PUSH1 0x20 ADD PUSH1 0x40 MLOAD DUP1 SWAP2 SUB SWAP1 KECCAK256 SWAP1 POP DUP6 DUP2 PUSH1 0x0 ADD SWAP1 DUP2 PUSH2 0xC64 SWAP2 SWAP1 PUSH2 0x19F6 JUMP JUMPDEST POP DUP2 PUSH1 0x1 ADD DUP2 PUSH1 0x1 ADD SWAP1 DUP2 PUSH2 0xC79 SWAP2 SWAP1 PUSH2 0x1C8F JUMP JUMPDEST POP DUP5 DUP2 PUSH1 0x2 ADD DUP2 SWAP1 SSTORE POP DUP4 DUP2 PUSH1 0x3 ADD DUP2 SWAP1 SSTORE POP DUP3 DUP2 PUSH1 0x4 ADD PUSH1 0x0 PUSH2 0x100 EXP DUP2 SLOAD DUP2 PUSH20 0xFFFFFFFFFFFFFFFFFFFFFFFFFFFFFFFFFFFFFFFF MUL NOT AND SWAP1 DUP4 PUSH20 0xFFFFFFFFFFFFFFFFFFFFFFFFFFFFFFFFFFFFFFFF AND MUL OR SWAP1 SSTORE POP DUP7 DUP2 PUSH1 0x5 ADD SWAP1 DUP2 PUSH2 0xCE0 SWAP2 SWAP1 PUSH2 0x19F6 JUMP JUMPDEST POP PUSH1 0x0 JUMPDEST DUP3 PUSH1 0x6 ADD DUP1 SLOAD SWAP1 POP DUP2 LT ISZERO PUSH2 0xD5C JUMPI DUP2 PUSH1 0x6 ADD DUP4 PUSH1 0x6 ADD DUP3 DUP2 SLOAD DUP2 LT PUSH2 0xD0D JUMPI PUSH2 0xD0C PUSH2 0x1FC9 JUMP JUMPDEST JUMPDEST SWAP1 PUSH1 0x0 MSTORE PUSH1 0x20 PUSH1 0x0 KECCAK256 ADD SWAP1 DUP1 PUSH1 0x1 DUP2 SLOAD ADD DUP1 DUP3 SSTORE DUP1 SWAP2 POP POP PUSH1 0x1 SWAP1 SUB SWAP1 PUSH1 0x0 MSTORE PUSH1 0x20 PUSH1 0x0 KECCAK256 ADD PUSH1 0x0 SWAP1 SWAP2 SWAP1 SWAP2 SWAP1 SWAP2 POP SWAP1 DUP2 PUSH2 0xD48 SWAP2 SWAP1 PUSH2 0x1C8F JUMP JUMPDEST POP DUP1 DUP1 PUSH2 0xD54 SWAP1 PUSH2 0x1FF8 JUMP JUMPDEST SWAP2 POP POP PUSH2 0xCE4 JUMP JUMPDEST POP DUP1 PUSH1 0x6 ADD DUP7 SWAP1 DUP1 PUSH1 0x1 DUP2 SLOAD ADD DUP1 DUP3 SSTORE DUP1 SWAP2 POP POP PUSH1 0x1 SWAP1 SUB SWAP1 PUSH1 0x0 MSTORE PUSH1 0x20 PUSH1 0x0 KECCAK256 ADD PUSH1 0x0 SWAP1 SWAP2 SWAP1 SWAP2 SWAP1 SWAP2 POP SWAP1 DUP2 PUSH2 0xD93 SWAP2 SWAP1 PUSH2 0x19F6 JUMP JUMPDEST POP PUSH1 0x0 JUMPDEST DUP3 PUSH1 0x7 ADD DUP1 SLOAD SWAP1 POP DUP2 LT ISZERO PUSH2 0xE04 JUMPI DUP2 PUSH1 0x7 ADD DUP4 PUSH1 0x7 ADD DUP3 DUP2 SLOAD DUP2 LT PUSH2 0xDC0 JUMPI PUSH2 0xDBF PUSH2 0x1FC9 JUMP JUMPDEST JUMPDEST SWAP1 PUSH1 0x0 MSTORE PUSH1 0x20 PUSH1 0x0 KECCAK256 ADD SLOAD SWAP1 DUP1 PUSH1 0x1 DUP2 SLOAD ADD DUP1 DUP3 SSTORE DUP1 SWAP2 POP POP PUSH1 0x1 SWAP1 SUB SWAP1 PUSH1 0x0 MSTORE PUSH1 0x20 PUSH1 0x0 KECCAK256 ADD PUSH1 0x0 SWAP1 SWAP2 SWAP1 SWAP2 SWAP1 SWAP2 POP SSTORE DUP1 DUP1 PUSH2 0xDFC SWAP1 PUSH2 0x1FF8 JUMP JUMPDEST SWAP2 POP POP PUSH2 0xD97 JUMP JUMPDEST POP DUP1 PUSH1 0x7 ADD DUP5 SWAP1 DUP1 PUSH1 0x1 DUP2 SLOAD ADD DUP1 DUP3 SSTORE DUP1 SWAP2 POP POP PUSH1 0x1 SWAP1 SUB SWAP1 PUSH1 0x0 MSTORE PUSH1 0x20 PUSH1 0x0 KECCAK256 ADD PUSH1 0x0 SWAP1 SWAP2 SWAP1 SWAP2 SWAP1 SWAP2 POP SSTORE PUSH1 0x0 JUMPDEST DUP3 PUSH1 0x8 ADD DUP1 SLOAD SWAP1 POP DUP2 LT ISZERO PUSH2 0xEA0 JUMPI DUP2 PUSH1 0x8 ADD DUP4 PUSH1 0x8 ADD DUP3 DUP2 SLOAD DUP2 LT PUSH2 0xE5C JUMPI PUSH2 0xE5B PUSH2 0x1FC9 JUMP JUMPDEST JUMPDEST SWAP1 PUSH1 0x0 MSTORE PUSH1 0x20 PUSH1 0x0 KECCAK256 ADD SLOAD SWAP1 DUP1 PUSH1 0x1 DUP2 SLOAD ADD DUP1 DUP3 SSTORE DUP1 SWAP2 POP POP PUSH1 0x1 SWAP1 SUB SWAP1 PUSH1 0x0 MSTORE PUSH1 0x20 PUSH1 0x0 KECCAK256 ADD PUSH1 0x0 SWAP1 SWAP2 SWAP1 SWAP2 SWAP1 SWAP2 POP SSTORE DUP1 DUP1 PUSH2 0xE98 SWAP1 PUSH2 0x1FF8 JUMP JUMPDEST SWAP2 POP POP PUSH2 0xE33 JUMP JUMPDEST POP DUP1 PUSH1 0x8 ADD DUP6 SWAP1 DUP1 PUSH1 0x1 DUP2 SLOAD ADD DUP1 DUP3 SSTORE DUP1 SWAP2 POP POP PUSH1 0x1 SWAP1 SUB SWAP1 PUSH1 0x0 MSTORE PUSH1 0x20 PUSH1 0x0 KECCAK256 ADD PUSH1 0x0 SWAP1 SWAP2 SWAP1 SWAP2 SWAP1 SWAP2 POP SSTORE PUSH32 0x5D32A9CA74A63871C0C84D95D79252BC18117C32B6F9BC56D3780504146C28A DUP8 DUP8 DUP8 DUP8 CALLER DUP9 PUSH1 0x40 MLOAD PUSH2 0xF05 SWAP7 SWAP6 SWAP5 SWAP4 SWAP3 SWAP2 SWAP1 PUSH2 0x2040 JUMP JUMPDEST PUSH1 0x40 MLOAD DUP1 SWAP2 SUB SWAP1 LOG1 POP POP POP POP POP POP POP JUMP JUMPDEST PUSH1 0x0 PUSH1 0x40 MLOAD SWAP1 POP SWAP1 JUMP JUMPDEST PUSH1 0x0 DUP1 REVERT JUMPDEST PUSH1 0x0 DUP1 REVERT JUMPDEST PUSH1 0x0 DUP1 REVERT JUMPDEST PUSH1 0x0 DUP1 REVERT JUMPDEST PUSH1 0x0 PUSH1 0x1F NOT PUSH1 0x1F DUP4 ADD AND SWAP1 POP SWAP2 SWAP1 POP JUMP JUMPDEST PUSH32 0x4E487B7100000000000000000000000000000000000000000000000000000000 PUSH1 0x0 MSTORE PUSH1 0x41 PUSH1 0x4 MSTORE PUSH1 0x24 PUSH1 0x0 REVERT JUMPDEST PUSH2 0xF7D DUP3 PUSH2 0xF34 JUMP JUMPDEST DUP2 ADD DUP2 DUP2 LT PUSH8 0xFFFFFFFFFFFFFFFF DUP3 GT OR ISZERO PUSH2 0xF9C JUMPI PUSH2 0xF9B PUSH2 0xF45 JUMP JUMPDEST JUMPDEST DUP1 PUSH1 0x40 MSTORE POP POP POP JUMP JUMPDEST PUSH1 0x0 PUSH2 0xFAF PUSH2 0xF16 JUMP JUMPDEST SWAP1 POP PUSH2 0xFBB DUP3 DUP3 PUSH2 0xF74 JUMP JUMPDEST SWAP2 SWAP1 POP JUMP JUMPDEST PUSH1 0x0 PUSH8 0xFFFFFFFFFFFFFFFF DUP3 GT ISZERO PUSH2 0xFDB JUMPI PUSH2 0xFDA PUSH2 0xF45 JUMP JUMPDEST JUMPDEST PUSH2 0xFE4 DUP3 PUSH2 0xF34 JUMP JUMPDEST SWAP1 POP PUSH1 0x20 DUP2 ADD SWAP1 POP SWAP2 SWAP1 POP JUMP JUMPDEST DUP3 DUP2 DUP4 CALLDATACOPY PUSH1 0x0 DUP4 DUP4 ADD MSTORE POP POP POP JUMP JUMPDEST PUSH1 0x0 PUSH2 0x1013 PUSH2 0x100E DUP5 PUSH2 0xFC0 JUMP JUMPDEST PUSH2 0xFA5 JUMP JUMPDEST SWAP1 POP DUP3 DUP2 MSTORE PUSH1 0x20 DUP2 ADD DUP5 DUP5 DUP5 ADD GT ISZERO PUSH2 0x102F JUMPI PUSH2 0x102E PUSH2 0xF2F JUMP JUMPDEST JUMPDEST PUSH2 0x103A DUP5 DUP3 DUP6 PUSH2 0xFF1 JUMP JUMPDEST POP SWAP4 SWAP3 POP POP POP JUMP JUMPDEST PUSH1 0x0 DUP3 PUSH1 0x1F DUP4 ADD SLT PUSH2 0x1057 JUMPI PUSH2 0x1056 PUSH2 0xF2A JUMP JUMPDEST JUMPDEST DUP2 CALLDATALOAD PUSH2 0x1067 DUP5 DUP3 PUSH1 0x20 DUP7 ADD PUSH2 0x1000 JUMP JUMPDEST SWAP2 POP POP SWAP3 SWAP2 POP POP JUMP JUMPDEST PUSH1 0x0 DUP2 SWAP1 POP SWAP2 SWAP1 POP JUMP JUMPDEST PUSH2 0x1083 DUP2 PUSH2 0x1070 JUMP JUMPDEST DUP2 EQ PUSH2 0x108E JUMPI PUSH1 0x0 DUP1 REVERT JUMPDEST POP JUMP JUMPDEST PUSH1 0x0 DUP2 CALLDATALOAD SWAP1 POP PUSH2 0x10A0 DUP2 PUSH2 0x107A JUMP JUMPDEST SWAP3 SWAP2 POP POP JUMP JUMPDEST PUSH1 0x0 DUP1 PUSH1 0x0 DUP1 PUSH1 0x80 DUP6 DUP8 SUB SLT ISZERO PUSH2 0x10C0 JUMPI PUSH2 0x10BF PUSH2 0xF20 JUMP JUMPDEST JUMPDEST PUSH1 0x0 DUP6 ADD CALLDATALOAD PUSH8 0xFFFFFFFFFFFFFFFF DUP2 GT ISZERO PUSH2 0x10DE JUMPI PUSH2 0x10DD PUSH2 0xF25 JUMP JUMPDEST JUMPDEST PUSH2 0x10EA DUP8 DUP3 DUP9 ADD PUSH2 0x1042 JUMP JUMPDEST SWAP5 POP POP PUSH1 0x20 DUP6 ADD CALLDATALOAD PUSH8 0xFFFFFFFFFFFFFFFF DUP2 GT ISZERO PUSH2 0x110B JUMPI PUSH2 0x110A PUSH2 0xF25 JUMP JUMPDEST JUMPDEST PUSH2 0x1117 DUP8 DUP3 DUP9 ADD PUSH2 0x1042 JUMP JUMPDEST SWAP4 POP POP PUSH1 0x40 PUSH2 0x1128 DUP8 DUP3 DUP9 ADD PUSH2 0x1091 JUMP JUMPDEST SWAP3 POP POP PUSH1 0x60 PUSH2 0x1139 DUP8 DUP3 DUP9 ADD PUSH2 0x1091 JUMP JUMPDEST SWAP2 POP POP SWAP3 SWAP6 SWAP2 SWAP5 POP SWAP3 POP JUMP JUMPDEST PUSH1 0x0 PUSH1 0x20 DUP3 DUP5 SUB SLT ISZERO PUSH2 0x115B JUMPI PUSH2 0x115A PUSH2 0xF20 JUMP JUMPDEST JUMPDEST PUSH1 0x0 DUP3 ADD CALLDATALOAD PUSH8 0xFFFFFFFFFFFFFFFF DUP2 GT ISZERO PUSH2 0x1179 JUMPI PUSH2 0x1178 PUSH2 0xF25 JUMP JUMPDEST JUMPDEST PUSH2 0x1185 DUP5 DUP3 DUP6 ADD PUSH2 0x1042 JUMP JUMPDEST SWAP2 POP POP SWAP3 SWAP2 POP POP JUMP JUMPDEST PUSH1 0x0 DUP2 MLOAD SWAP1 POP SWAP2 SWAP1 POP JUMP JUMPDEST PUSH1 0x0 DUP3 DUP3 MSTORE PUSH1 0x20 DUP3 ADD SWAP1 POP SWAP3 SWAP2 POP POP JUMP JUMPDEST PUSH1 0x0 JUMPDEST DUP4 DUP2 LT ISZERO PUSH2 0x11C8 JUMPI DUP1 DUP3 ADD MLOAD DUP2 DUP5 ADD MSTORE PUSH1 0x20 DUP2 ADD SWAP1 POP PUSH2 0x11AD JUMP JUMPDEST PUSH1 0x0 DUP5 DUP5 ADD MSTORE POP POP POP POP JUMP JUMPDEST PUSH1 0x0 PUSH2 0x11DF DUP3 PUSH2 0x118E JUMP JUMPDEST PUSH2 0x11E9 DUP2 DUP6 PUSH2 0x1199 JUMP JUMPDEST SWAP4 POP PUSH2 0x11F9 DUP2 DUP6 PUSH1 0x20 DUP7 ADD PUSH2 0x11AA JUMP JUMPDEST PUSH2 0x1202 DUP2 PUSH2 0xF34 JUMP JUMPDEST DUP5 ADD SWAP2 POP POP SWAP3 SWAP2 POP POP JUMP JUMPDEST PUSH2 0x1216 DUP2 PUSH2 0x1070 JUMP JUMPDEST DUP3 MSTORE POP POP JUMP JUMPDEST PUSH1 0x0 PUSH20 0xFFFFFFFFFFFFFFFFFFFFFFFFFFFFFFFFFFFFFFFF DUP3 AND SWAP1 POP SWAP2 SWAP1 POP JUMP JUMPDEST PUSH1 0x0 PUSH2 0x1247 DUP3 PUSH2 0x121C JUMP JUMPDEST SWAP1 POP SWAP2 SWAP1 POP JUMP JUMPDEST PUSH2 0x1257 DUP2 PUSH2 0x123C JUMP JUMPDEST DUP3 MSTORE POP POP JUMP JUMPDEST PUSH1 0x0 PUSH1 0xC0 DUP3 ADD SWAP1 POP DUP2 DUP2 SUB PUSH1 0x0 DUP4 ADD MSTORE PUSH2 0x1277 DUP2 DUP10 PUSH2 0x11D4 JUMP JUMPDEST SWAP1 POP DUP2 DUP2 SUB PUSH1 0x20 DUP4 ADD MSTORE PUSH2 0x128B DUP2 DUP9 PUSH2 0x11D4 JUMP JUMPDEST SWAP1 POP PUSH2 0x129A PUSH1 0x40 DUP4 ADD DUP8 PUSH2 0x120D JUMP JUMPDEST PUSH2 0x12A7 PUSH1 0x60 DUP4 ADD DUP7 PUSH2 0x120D JUMP JUMPDEST PUSH2 0x12B4 PUSH1 0x80 DUP4 ADD DUP6 PUSH2 0x124E JUMP JUMPDEST DUP2 DUP2 SUB PUSH1 0xA0 DUP4 ADD MSTORE PUSH2 0x12C6 DUP2 DUP5 PUSH2 0x11D4 JUMP JUMPDEST SWAP1 POP SWAP8 SWAP7 POP POP POP POP POP POP POP JUMP JUMPDEST PUSH1 0x0 DUP1 PUSH1 0x0 PUSH1 0x60 DUP5 DUP7 SUB SLT ISZERO PUSH2 0x12EC JUMPI PUSH2 0x12EB PUSH2 0xF20 JUMP JUMPDEST JUMPDEST PUSH1 0x0 DUP5 ADD CALLDATALOAD PUSH8 0xFFFFFFFFFFFFFFFF DUP2 GT ISZERO PUSH2 0x130A JUMPI PUSH2 0x1309 PUSH2 0xF25 JUMP JUMPDEST JUMPDEST PUSH2 0x1316 DUP7 DUP3 DUP8 ADD PUSH2 0x1042 JUMP JUMPDEST SWAP4 POP POP PUSH1 0x20 DUP5 ADD CALLDATALOAD PUSH8 0xFFFFFFFFFFFFFFFF DUP2 GT ISZERO PUSH2 0x1337 JUMPI PUSH2 0x1336 PUSH2 0xF25 JUMP JUMPDEST JUMPDEST PUSH2 0x1343 DUP7 DUP3 DUP8 ADD PUSH2 0x1042 JUMP JUMPDEST SWAP3 POP POP PUSH1 0x40 PUSH2 0x1354 DUP7 DUP3 DUP8 ADD PUSH2 0x1091 JUMP JUMPDEST SWAP2 POP POP SWAP3 POP SWAP3 POP SWAP3 JUMP JUMPDEST PUSH1 0x0 DUP2 MLOAD SWAP1 POP SWAP2 SWAP1 POP JUMP JUMPDEST PUSH1 0x0 DUP3 DUP3 MSTORE PUSH1 0x20 DUP3 ADD SWAP1 POP SWAP3 SWAP2 POP POP JUMP JUMPDEST PUSH1 0x0 DUP2 SWAP1 POP PUSH1 0x20 DUP3 ADD SWAP1 POP SWAP2 SWAP1 POP JUMP JUMPDEST PUSH1 0x0 DUP3 DUP3 MSTORE PUSH1 0x20 DUP3 ADD SWAP1 POP SWAP3 SWAP2 POP POP JUMP JUMPDEST PUSH1 0x0 PUSH2 0x13A6 DUP3 PUSH2 0x118E JUMP JUMPDEST PUSH2 0x13B0 DUP2 DUP6 PUSH2 0x138A JUMP JUMPDEST SWAP4 POP PUSH2 0x13C0 DUP2 DUP6 PUSH1 0x20 DUP7 ADD PUSH2 0x11AA JUMP JUMPDEST PUSH2 0x13C9 DUP2 PUSH2 0xF34 JUMP JUMPDEST DUP5 ADD SWAP2 POP POP SWAP3 SWAP2 POP POP JUMP JUMPDEST PUSH1 0x0 PUSH2 0x13E0 DUP4 DUP4 PUSH2 0x139B JUMP JUMPDEST SWAP1 POP SWAP3 SWAP2 POP POP JUMP JUMPDEST PUSH1 0x0 PUSH1 0x20 DUP3 ADD SWAP1 POP SWAP2 SWAP1 POP JUMP JUMPDEST PUSH1 0x0 PUSH2 0x1400 DUP3 PUSH2 0x135E JUMP JUMPDEST PUSH2 0x140A DUP2 DUP6 PUSH2 0x1369 JUMP JUMPDEST SWAP4 POP DUP4 PUSH1 0x20 DUP3 MUL DUP6 ADD PUSH2 0x141C DUP6 PUSH2 0x137A JUMP JUMPDEST DUP1 PUSH1 0x0 JUMPDEST DUP6 DUP2 LT ISZERO PUSH2 0x1458 JUMPI DUP5 DUP5 SUB DUP10 MSTORE DUP2 MLOAD PUSH2 0x1439 DUP6 DUP3 PUSH2 0x13D4 JUMP JUMPDEST SWAP5 POP PUSH2 0x1444 DUP4 PUSH2 0x13E8 JUMP JUMPDEST SWAP3 POP PUSH1 0x20 DUP11 ADD SWAP10 POP POP PUSH1 0x1 DUP2 ADD SWAP1 POP PUSH2 0x1420 JUMP JUMPDEST POP DUP3 SWAP8 POP DUP8 SWAP6 POP POP POP POP POP POP SWAP3 SWAP2 POP POP JUMP JUMPDEST PUSH1 0x0 DUP2 MLOAD SWAP1 POP SWAP2 SWAP1 POP JUMP JUMPDEST PUSH1 0x0 DUP3 DUP3 MSTORE PUSH1 0x20 DUP3 ADD SWAP1 POP SWAP3 SWAP2 POP POP JUMP JUMPDEST PUSH1 0x0 DUP2 SWAP1 POP PUSH1 0x20 DUP3 ADD SWAP1 POP SWAP2 SWAP1 POP JUMP JUMPDEST PUSH2 0x149F DUP2 PUSH2 0x1070 JUMP JUMPDEST DUP3 MSTORE POP POP JUMP JUMPDEST PUSH1 0x0 PUSH2 0x14B1 DUP4 DUP4 PUSH2 0x1496 JUMP JUMPDEST PUSH1 0x20 DUP4 ADD SWAP1 POP SWAP3 SWAP2 POP POP JUMP JUMPDEST PUSH1 0x0 PUSH1 0x20 DUP3 ADD SWAP1 POP SWAP2 SWAP1 POP JUMP JUMPDEST PUSH1 0x0 PUSH2 0x14D5 DUP3 PUSH2 0x146A JUMP JUMPDEST PUSH2 0x14DF DUP2 DUP6 PUSH2 0x1475 JUMP JUMPDEST SWAP4 POP PUSH2 0x14EA DUP4 PUSH2 0x1486 JUMP JUMPDEST DUP1 PUSH1 0x0 JUMPDEST DUP4 DUP2 LT ISZERO PUSH2 0x151B JUMPI DUP2 MLOAD PUSH2 0x1502 DUP9 DUP3 PUSH2 0x14A5 JUMP JUMPDEST SWAP8 POP PUSH2 0x150D DUP4 PUSH2 0x14BD JUMP JUMPDEST SWAP3 POP POP PUSH1 0x1 DUP2 ADD SWAP1 POP PUSH2 0x14EE JUMP JUMPDEST POP DUP6 SWAP4 POP POP POP POP SWAP3 SWAP2 POP POP JUMP JUMPDEST PUSH1 0x0 PUSH1 0x60 DUP3 ADD SWAP1 POP DUP2 DUP2 SUB PUSH1 0x0 DUP4 ADD MSTORE PUSH2 0x1542 DUP2 DUP7 PUSH2 0x13F5 JUMP JUMPDEST SWAP1 POP DUP2 DUP2 SUB PUSH1 0x20 DUP4 ADD MSTORE PUSH2 0x1556 DUP2 DUP6 PUSH2 0x14CA JUMP JUMPDEST SWAP1 POP DUP2 DUP2 SUB PUSH1 0x40 DUP4 ADD MSTORE PUSH2 0x156A DUP2 DUP5 PUSH2 0x14CA JUMP JUMPDEST SWAP1 POP SWAP5 SWAP4 POP POP POP POP JUMP JUMPDEST PUSH2 0x157D DUP2 PUSH2 0x123C JUMP JUMPDEST DUP2 EQ PUSH2 0x1588 JUMPI PUSH1 0x0 DUP1 REVERT JUMPDEST POP JUMP JUMPDEST PUSH1 0x0 DUP2 CALLDATALOAD SWAP1 POP PUSH2 0x159A DUP2 PUSH2 0x1574 JUMP JUMPDEST SWAP3 SWAP2 POP POP JUMP JUMPDEST PUSH1 0x0 DUP1 PUSH1 0x0 DUP1 PUSH1 0x0 PUSH1 0xA0 DUP7 DUP9 SUB SLT ISZERO PUSH2 0x15BC JUMPI PUSH2 0x15BB PUSH2 0xF20 JUMP JUMPDEST JUMPDEST PUSH1 0x0 DUP7 ADD CALLDATALOAD PUSH8 0xFFFFFFFFFFFFFFFF DUP2 GT ISZERO PUSH2 0x15DA JUMPI PUSH2 0x15D9 PUSH2 0xF25 JUMP JUMPDEST JUMPDEST PUSH2 0x15E6 DUP9 DUP3 DUP10 ADD PUSH2 0x1042 JUMP JUMPDEST SWAP6 POP POP PUSH1 0x20 DUP7 ADD CALLDATALOAD PUSH8 0xFFFFFFFFFFFFFFFF DUP2 GT ISZERO PUSH2 0x1607 JUMPI PUSH2 0x1606 PUSH2 0xF25 JUMP JUMPDEST JUMPDEST PUSH2 0x1613 DUP9 DUP3 DUP10 ADD PUSH2 0x1042 JUMP JUMPDEST SWAP5 POP POP PUSH1 0x40 PUSH2 0x1624 DUP9 DUP3 DUP10 ADD PUSH2 0x1091 JUMP JUMPDEST SWAP4 POP POP PUSH1 0x60 PUSH2 0x1635 DUP9 DUP3 DUP10 ADD PUSH2 0x1091 JUMP JUMPDEST SWAP3 POP POP PUSH1 0x80 PUSH2 0x1646 DUP9 DUP3 DUP10 ADD PUSH2 0x158B JUMP JUMPDEST SWAP2 POP POP SWAP3 SWAP6 POP SWAP3 SWAP6 SWAP1 SWAP4 POP JUMP JUMPDEST PUSH1 0x0 DUP2 SWAP1 POP SWAP3 SWAP2 POP POP JUMP JUMPDEST PUSH1 0x0 PUSH2 0x1669 DUP3 PUSH2 0x118E JUMP JUMPDEST PUSH2 0x1673 DUP2 DUP6 PUSH2 0x1653 JUMP JUMPDEST SWAP4 POP PUSH2 0x1683 DUP2 DUP6 PUSH1 0x20 DUP7 ADD PUSH2 0x11AA JUMP JUMPDEST DUP1 DUP5 ADD SWAP2 POP POP SWAP3 SWAP2 POP POP JUMP JUMPDEST PUSH1 0x0 PUSH2 0x169B DUP3 DUP5 PUSH2 0x165E JUMP JUMPDEST SWAP2 POP DUP2 SWAP1 POP SWAP3 SWAP2 POP POP JUMP JUMPDEST PUSH32 0x53746F636B20494420616C726561647920657869737473000000000000000000 PUSH1 0x0 DUP3 ADD MSTORE POP JUMP JUMPDEST PUSH1 0x0 PUSH2 0x16DC PUSH1 0x17 DUP4 PUSH2 0x1199 JUMP JUMPDEST SWAP2 POP PUSH2 0x16E7 DUP3 PUSH2 0x16A6 JUMP JUMPDEST PUSH1 0x20 DUP3 ADD SWAP1 POP SWAP2 SWAP1 POP JUMP JUMPDEST PUSH1 0x0 PUSH1 0x20 DUP3 ADD SWAP1 POP DUP2 DUP2 SUB PUSH1 0x0 DUP4 ADD MSTORE PUSH2 0x170B DUP2 PUSH2 0x16CF JUMP JUMPDEST SWAP1 POP SWAP2 SWAP1 POP JUMP JUMPDEST PUSH32 0x496E76616C6964207175616E7469747900000000000000000000000000000000 PUSH1 0x0 DUP3 ADD MSTORE POP JUMP JUMPDEST PUSH1 0x0 PUSH2 0x1748 PUSH1 0x10 DUP4 PUSH2 0x1199 JUMP JUMPDEST SWAP2 POP PUSH2 0x1753 DUP3 PUSH2 0x1712 JUMP JUMPDEST PUSH1 0x20 DUP3 ADD SWAP1 POP SWAP2 SWAP1 POP JUMP JUMPDEST PUSH1 0x0 PUSH1 0x20 DUP3 ADD SWAP1 POP DUP2 DUP2 SUB PUSH1 0x0 DUP4 ADD MSTORE PUSH2 0x1777 DUP2 PUSH2 0x173B JUMP JUMPDEST SWAP1 POP SWAP2 SWAP1 POP JUMP JUMPDEST PUSH32 0x496E76616C696420707269636500000000000000000000000000000000000000 PUSH1 0x0 DUP3 ADD MSTORE POP JUMP JUMPDEST PUSH1 0x0 PUSH2 0x17B4 PUSH1 0xD DUP4 PUSH2 0x1199 JUMP JUMPDEST SWAP2 POP PUSH2 0x17BF DUP3 PUSH2 0x177E JUMP JUMPDEST PUSH1 0x20 DUP3 ADD SWAP1 POP SWAP2 SWAP1 POP JUMP JUMPDEST PUSH1 0x0 PUSH1 0x20 DUP3 ADD SWAP1 POP DUP2 DUP2 SUB PUSH1 0x0 DUP4 ADD MSTORE PUSH2 0x17E3 DUP2 PUSH2 0x17A7 JUMP JUMPDEST SWAP1 POP SWAP2 SWAP1 POP JUMP JUMPDEST PUSH32 0x4E487B7100000000000000000000000000000000000000000000000000000000 PUSH1 0x0 MSTORE PUSH1 0x22 PUSH1 0x4 MSTORE PUSH1 0x24 PUSH1 0x0 REVERT JUMPDEST PUSH1 0x0 PUSH1 0x2 DUP3 DIV SWAP1 POP PUSH1 0x1 DUP3 AND DUP1 PUSH2 0x1831 JUMPI PUSH1 0x7F DUP3 AND SWAP2 POP JUMPDEST PUSH1 0x20 DUP3 LT DUP2 SUB PUSH2 0x1844 JUMPI PUSH2 0x1843 PUSH2 0x17EA JUMP JUMPDEST JUMPDEST POP SWAP2 SWAP1 POP JUMP JUMPDEST PUSH1 0x0 DUP2 SWAP1 POP DUP2 PUSH1 0x0 MSTORE PUSH1 0x20 PUSH1 0x0 KECCAK256 SWAP1 POP SWAP2 SWAP1 POP JUMP JUMPDEST PUSH1 0x0 PUSH1 0x20 PUSH1 0x1F DUP4 ADD DIV SWAP1 POP SWAP2 SWAP1 POP JUMP JUMPDEST PUSH1 0x0 DUP3 DUP3 SHL SWAP1 POP SWAP3 SWAP2 POP POP JUMP JUMPDEST PUSH1 0x0 PUSH1 0x8 DUP4 MUL PUSH2 0x18AC PUSH32 0xFFFFFFFFFFFFFFFFFFFFFFFFFFFFFFFFFFFFFFFFFFFFFFFFFFFFFFFFFFFFFFFF DUP3 PUSH2 0x186F JUMP JUMPDEST PUSH2 0x18B6 DUP7 DUP4 PUSH2 0x186F JUMP JUMPDEST SWAP6 POP DUP1 NOT DUP5 AND SWAP4 POP DUP1 DUP7 AND DUP5 OR SWAP3 POP POP POP SWAP4 SWAP3 POP POP POP JUMP JUMPDEST PUSH1 0x0 DUP2 SWAP1 POP SWAP2 SWAP1 POP JUMP JUMPDEST PUSH1 0x0 PUSH2 0x18F3 PUSH2 0x18EE PUSH2 0x18E9 DUP5 PUSH2 0x1070 JUMP JUMPDEST PUSH2 0x18CE JUMP JUMPDEST PUSH2 0x1070 JUMP JUMPDEST SWAP1 POP SWAP2 SWAP1 POP JUMP JUMPDEST PUSH1 0x0 DUP2 SWAP1 POP SWAP2 SWAP1 POP JUMP JUMPDEST PUSH2 0x190D DUP4 PUSH2 0x18D8 JUMP JUMPDEST PUSH2 0x1921 PUSH2 0x1919 DUP3 PUSH2 0x18FA JUMP JUMPDEST DUP5 DUP5 SLOAD PUSH2 0x187C JUMP JUMPDEST DUP3 SSTORE POP POP POP POP JUMP JUMPDEST PUSH1 0x0 SWAP1 JUMP JUMPDEST PUSH2 0x1936 PUSH2 0x1929 JUMP JUMPDEST PUSH2 0x1941 DUP2 DUP5 DUP5 PUSH2 0x1904 JUMP JUMPDEST POP POP POP JUMP JUMPDEST JUMPDEST DUP2 DUP2 LT ISZERO PUSH2 0x1965 JUMPI PUSH2 0x195A PUSH1 0x0 DUP3 PUSH2 0x192E JUMP JUMPDEST PUSH1 0x1 DUP2 ADD SWAP1 POP PUSH2 0x1947 JUMP JUMPDEST POP POP JUMP JUMPDEST PUSH1 0x1F DUP3 GT ISZERO PUSH2 0x19AA JUMPI PUSH2 0x197B DUP2 PUSH2 0x184A JUMP JUMPDEST PUSH2 0x1984 DUP5 PUSH2 0x185F JUMP JUMPDEST DUP2 ADD PUSH1 0x20 DUP6 LT ISZERO PUSH2 0x1993 JUMPI DUP2 SWAP1 POP JUMPDEST PUSH2 0x19A7 PUSH2 0x199F DUP6 PUSH2 0x185F JUMP JUMPDEST DUP4 ADD DUP3 PUSH2 0x1946 JUMP JUMPDEST POP POP JUMPDEST POP POP POP JUMP JUMPDEST PUSH1 0x0 DUP3 DUP3 SHR SWAP1 POP SWAP3 SWAP2 POP POP JUMP JUMPDEST PUSH1 0x0 PUSH2 0x19CD PUSH1 0x0 NOT DUP5 PUSH1 0x8 MUL PUSH2 0x19AF JUMP JUMPDEST NOT DUP1 DUP4 AND SWAP2 POP POP SWAP3 SWAP2 POP POP JUMP JUMPDEST PUSH1 0x0 PUSH2 0x19E6 DUP4 DUP4 PUSH2 0x19BC JUMP JUMPDEST SWAP2 POP DUP3 PUSH1 0x2 MUL DUP3 OR SWAP1 POP SWAP3 SWAP2 POP POP JUMP JUMPDEST PUSH2 0x19FF DUP3 PUSH2 0x118E JUMP JUMPDEST PUSH8 0xFFFFFFFFFFFFFFFF DUP2 GT ISZERO PUSH2 0x1A18 JUMPI PUSH2 0x1A17 PUSH2 0xF45 JUMP JUMPDEST JUMPDEST PUSH2 0x1A22 DUP3 SLOAD PUSH2 0x1819 JUMP JUMPDEST PUSH2 0x1A2D DUP3 DUP3 DUP6 PUSH2 0x1969 JUMP JUMPDEST PUSH1 0x0 PUSH1 0x20 SWAP1 POP PUSH1 0x1F DUP4 GT PUSH1 0x1 DUP2 EQ PUSH2 0x1A60 JUMPI PUSH1 0x0 DUP5 ISZERO PUSH2 0x1A4E JUMPI DUP3 DUP8 ADD MLOAD SWAP1 POP JUMPDEST PUSH2 0x1A58 DUP6 DUP3 PUSH2 0x19DA JUMP JUMPDEST DUP7 SSTORE POP PUSH2 0x1AC0 JUMP JUMPDEST PUSH1 0x1F NOT DUP5 AND PUSH2 0x1A6E DUP7 PUSH2 0x184A JUMP JUMPDEST PUSH1 0x0 JUMPDEST DUP3 DUP2 LT ISZERO PUSH2 0x1A96 JUMPI DUP5 DUP10 ADD MLOAD DUP3 SSTORE PUSH1 0x1 DUP3 ADD SWAP2 POP PUSH1 0x20 DUP6 ADD SWAP5 POP PUSH1 0x20 DUP2 ADD SWAP1 POP PUSH2 0x1A71 JUMP JUMPDEST DUP7 DUP4 LT ISZERO PUSH2 0x1AB3 JUMPI DUP5 DUP10 ADD MLOAD PUSH2 0x1AAF PUSH1 0x1F DUP10 AND DUP3 PUSH2 0x19BC JUMP JUMPDEST DUP4 SSTORE POP JUMPDEST PUSH1 0x1 PUSH1 0x2 DUP9 MUL ADD DUP9 SSTORE POP POP POP JUMPDEST POP POP POP POP POP POP JUMP JUMPDEST PUSH1 0x0 PUSH1 0xA0 DUP3 ADD SWAP1 POP DUP2 DUP2 SUB PUSH1 0x0 DUP4 ADD MSTORE PUSH2 0x1AE2 DUP2 DUP9 PUSH2 0x11D4 JUMP JUMPDEST SWAP1 POP DUP2 DUP2 SUB PUSH1 0x20 DUP4 ADD MSTORE PUSH2 0x1AF6 DUP2 DUP8 PUSH2 0x11D4 JUMP JUMPDEST SWAP1 POP PUSH2 0x1B05 PUSH1 0x40 DUP4 ADD DUP7 PUSH2 0x120D JUMP JUMPDEST PUSH2 0x1B12 PUSH1 0x60 DUP4 ADD DUP6 PUSH2 0x120D JUMP JUMPDEST PUSH2 0x1B1F PUSH1 0x80 DUP4 ADD DUP5 PUSH2 0x124E JUMP JUMPDEST SWAP7 SWAP6 POP POP POP POP POP POP JUMP JUMPDEST PUSH32 0x506172656E742073746F636B20646F6573206E6F742065786973740000000000 PUSH1 0x0 DUP3 ADD MSTORE POP JUMP JUMPDEST PUSH1 0x0 PUSH2 0x1B5F PUSH1 0x1B DUP4 PUSH2 0x1199 JUMP JUMPDEST SWAP2 POP PUSH2 0x1B6A DUP3 PUSH2 0x1B29 JUMP JUMPDEST PUSH1 0x20 DUP3 ADD SWAP1 POP SWAP2 SWAP1 POP JUMP JUMPDEST PUSH1 0x0 PUSH1 0x20 DUP3 ADD SWAP1 POP DUP2 DUP2 SUB PUSH1 0x0 DUP4 ADD MSTORE PUSH2 0x1B8E DUP2 PUSH2 0x1B52 JUMP JUMPDEST SWAP1 POP SWAP2 SWAP1 POP JUMP JUMPDEST PUSH32 0x4E6F7420656E6F7567682073746F636B00000000000000000000000000000000 PUSH1 0x0 DUP3 ADD MSTORE POP JUMP JUMPDEST PUSH1 0x0 PUSH2 0x1BCB PUSH1 0x10 DUP4 PUSH2 0x1199 JUMP JUMPDEST SWAP2 POP PUSH2 0x1BD6 DUP3 PUSH2 0x1B95 JUMP JUMPDEST PUSH1 0x20 DUP3 ADD SWAP1 POP SWAP2 SWAP1 POP JUMP JUMPDEST PUSH1 0x0 PUSH1 0x20 DUP3 ADD SWAP1 POP DUP2 DUP2 SUB PUSH1 0x0 DUP4 ADD MSTORE PUSH2 0x1BFA DUP2 PUSH2 0x1BBE JUMP JUMPDEST SWAP1 POP SWAP2 SWAP1 POP JUMP JUMPDEST PUSH32 0x4E487B7100000000000000000000000000000000000000000000000000000000 PUSH1 0x0 MSTORE PUSH1 0x11 PUSH1 0x4 MSTORE PUSH1 0x24 PUSH1 0x0 REVERT JUMPDEST PUSH1 0x0 PUSH2 0x1C3B DUP3 PUSH2 0x1070 JUMP JUMPDEST SWAP2 POP PUSH2 0x1C46 DUP4 PUSH2 0x1070 JUMP JUMPDEST SWAP3 POP DUP3 DUP3 SUB SWAP1 POP DUP2 DUP2 GT ISZERO PUSH2 0x1C5E JUMPI PUSH2 0x1C5D PUSH2 0x1C01 JUMP JUMPDEST JUMPDEST SWAP3 SWAP2 POP POP JUMP JUMPDEST PUSH1 0x0 DUP2 SLOAD SWAP1 POP PUSH2 0x1C73 DUP2 PUSH2 0x1819 JUMP JUMPDEST SWAP1 POP SWAP2 SWAP1 POP JUMP JUMPDEST PUSH1 0x0 DUP2 SWAP1 POP DUP2 PUSH1 0x0 MSTORE PUSH1 0x20 PUSH1 0x0 KECCAK256 SWAP1 POP SWAP2 SWAP1 POP JUMP JUMPDEST DUP2 DUP2 SUB PUSH2 0x1C9D JUMPI POP POP PUSH2 0x1D75 JUMP JUMPDEST PUSH2 0x1CA6 DUP3 PUSH2 0x1C64 JUMP JUMPDEST PUSH8 0xFFFFFFFFFFFFFFFF DUP2 GT ISZERO PUSH2 0x1CBF JUMPI PUSH2 0x1CBE PUSH2 0xF45 JUMP JUMPDEST JUMPDEST PUSH2 0x1CC9 DUP3 SLOAD PUSH2 0x1819 JUMP JUMPDEST PUSH2 0x1CD4 DUP3 DUP3 DUP6 PUSH2 0x1969 JUMP JUMPDEST PUSH1 0x0 PUSH1 0x1F DUP4 GT PUSH1 0x1 DUP2 EQ PUSH2 0x1D03 JUMPI PUSH1 0x0 DUP5 ISZERO PUSH2 0x1CF1 JUMPI DUP3 DUP8 ADD SLOAD SWAP1 POP JUMPDEST PUSH2 0x1CFB DUP6 DUP3 PUSH2 0x19DA JUMP JUMPDEST DUP7 SSTORE POP PUSH2 0x1D6E JUMP JUMPDEST PUSH1 0x1F NOT DUP5 AND PUSH2 0x1D11 DUP8 PUSH2 0x1C7A JUMP JUMPDEST SWAP7 POP PUSH2 0x1D1C DUP7 PUSH2 0x184A JUMP JUMPDEST PUSH1 0x0 JUMPDEST DUP3 DUP2 LT ISZERO PUSH2 0x1D44 JUMPI DUP5 DUP10 ADD SLOAD DUP3 SSTORE PUSH1 0x1 DUP3 ADD SWAP2 POP PUSH1 0x1 DUP6 ADD SWAP5 POP PUSH1 0x20 DUP2 ADD SWAP1 POP PUSH2 0x1D1F JUMP JUMPDEST DUP7 DUP4 LT ISZERO PUSH2 0x1D61 JUMPI DUP5 DUP10 ADD SLOAD PUSH2 0x1D5D PUSH1 0x1F DUP10 AND DUP3 PUSH2 0x19BC JUMP JUMPDEST DUP4 SSTORE POP JUMPDEST PUSH1 0x1 PUSH1 0x2 DUP9 MUL ADD DUP9 SSTORE POP POP POP JUMPDEST POP POP POP POP POP POP JUMPDEST JUMP JUMPDEST PUSH32 0x4E6F74206F776E6572206F662073746F636B0000000000000000000000000000 PUSH1 0x0 DUP3 ADD MSTORE POP JUMP JUMPDEST PUSH1 0x0 PUSH2 0x1DAD PUSH1 0x12 DUP4 PUSH2 0x1199 JUMP JUMPDEST SWAP2 POP PUSH2 0x1DB8 DUP3 PUSH2 0x1D77 JUMP JUMPDEST PUSH1 0x20 DUP3 ADD SWAP1 POP SWAP2 SWAP1 POP JUMP JUMPDEST PUSH1 0x0 PUSH1 0x20 DUP3 ADD SWAP1 POP DUP2 DUP2 SUB PUSH1 0x0 DUP4 ADD MSTORE PUSH2 0x1DDC DUP2 PUSH2 0x1DA0 JUMP JUMPDEST SWAP1 POP SWAP2 SWAP1 POP JUMP JUMPDEST PUSH32 0x4E6F7420656E6F756768207175616E7469747900000000000000000000000000 PUSH1 0x0 DUP3 ADD MSTORE POP JUMP JUMPDEST PUSH1 0x0 PUSH2 0x1E19 PUSH1 0x13 DUP4 PUSH2 0x1199 JUMP JUMPDEST SWAP2 POP PUSH2 0x1E24 DUP3 PUSH2 0x1DE3 JUMP JUMPDEST PUSH1 0x20 DUP3 ADD SWAP1 POP SWAP2 SWAP1 POP JUMP JUMPDEST PUSH1 0x0 PUSH1 0x20 DUP3 ADD SWAP1 POP DUP2 DUP2 SUB PUSH1 0x0 DUP4 ADD MSTORE PUSH2 0x1E48 DUP2 PUSH2 0x1E0C JUMP JUMPDEST SWAP1 POP SWAP2 SWAP1 POP JUMP JUMPDEST PUSH32 0x5072696365206D757374206265203E3D20636F73740000000000000000000000 PUSH1 0x0 DUP3 ADD MSTORE POP JUMP JUMPDEST PUSH1 0x0 PUSH2 0x1E85 PUSH1 0x15 DUP4 PUSH2 0x1199 JUMP JUMPDEST SWAP2 POP PUSH2 0x1E90 DUP3 PUSH2 0x1E4F JUMP JUMPDEST PUSH1 0x20 DUP3 ADD SWAP1 POP SWAP2 SWAP1 POP JUMP JUMPDEST PUSH1 0x0 PUSH1 0x20 DUP3 ADD SWAP1 POP DUP2 DUP2 SUB PUSH1 0x0 DUP4 ADD MSTORE PUSH2 0x1EB4 DUP2 PUSH2 0x1E78 JUMP JUMPDEST SWAP1 POP SWAP2 SWAP1 POP JUMP JUMPDEST PUSH1 0x0 PUSH2 0x1EC6 DUP3 PUSH2 0x1070 JUMP JUMPDEST SWAP2 POP PUSH2 0x1ED1 DUP4 PUSH2 0x1070 JUMP JUMPDEST SWAP3 POP DUP3 DUP3 MUL PUSH2 0x1EDF DUP2 PUSH2 0x1070 JUMP JUMPDEST SWAP2 POP DUP3 DUP3 DIV DUP5 EQ DUP4 ISZERO OR PUSH2 0x1EF6 JUMPI PUSH2 0x1EF5 PUSH2 0x1C01 JUMP JUMPDEST JUMPDEST POP SWAP3 SWAP2 POP POP JUMP JUMPDEST PUSH32 0x4E487B7100000000000000000000000000000000000000000000000000000000 PUSH1 0x0 MSTORE PUSH1 0x12 PUSH1 0x4 MSTORE PUSH1 0x24 PUSH1 0x0 REVERT JUMPDEST PUSH1 0x0 PUSH2 0x1F37 DUP3 PUSH2 0x1070 JUMP JUMPDEST SWAP2 POP PUSH2 0x1F42 DUP4 PUSH2 0x1070 JUMP JUMPDEST SWAP3 POP DUP3 PUSH2 0x1F52 JUMPI PUSH2 0x1F51 PUSH2 0x1EFD JUMP JUMPDEST JUMPDEST DUP3 DUP3 DIV SWAP1 POP SWAP3 SWAP2 POP POP JUMP JUMPDEST PUSH32 0x4D617820323025206D617267696E20616C6C6F77656400000000000000000000 PUSH1 0x0 DUP3 ADD MSTORE POP JUMP JUMPDEST PUSH1 0x0 PUSH2 0x1F93 PUSH1 0x16 DUP4 PUSH2 0x1199 JUMP JUMPDEST SWAP2 POP PUSH2 0x1F9E DUP3 PUSH2 0x1F5D JUMP JUMPDEST PUSH1 0x20 DUP3 ADD SWAP1 POP SWAP2 SWAP1 POP JUMP JUMPDEST PUSH1 0x0 PUSH1 0x20 DUP3 ADD SWAP1 POP DUP2 DUP2 SUB PUSH1 0x0 DUP4 ADD MSTORE PUSH2 0x1FC2 DUP2 PUSH2 0x1F86 JUMP JUMPDEST SWAP1 POP SWAP2 SWAP1 POP JUMP JUMPDEST PUSH32 0x4E487B7100000000000000000000000000000000000000000000000000000000 PUSH1 0x0 MSTORE PUSH1 0x32 PUSH1 0x4 MSTORE PUSH1 0x24 PUSH1 0x0 REVERT JUMPDEST PUSH1 0x0 PUSH2 0x2003 DUP3 PUSH2 0x1070 JUMP JUMPDEST SWAP2 POP PUSH32 0xFFFFFFFFFFFFFFFFFFFFFFFFFFFFFFFFFFFFFFFFFFFFFFFFFFFFFFFFFFFFFFFF DUP3 SUB PUSH2 0x2035 JUMPI PUSH2 0x2034 PUSH2 0x1C01 JUMP JUMPDEST JUMPDEST PUSH1 0x1 DUP3 ADD SWAP1 POP SWAP2 SWAP1 POP JUMP JUMPDEST PUSH1 0x0 PUSH1 0xC0 DUP3 ADD SWAP1 POP DUP2 DUP2 SUB PUSH1 0x0 DUP4 ADD MSTORE PUSH2 0x205A DUP2 DUP10 PUSH2 0x11D4 JUMP JUMPDEST SWAP1 POP DUP2 DUP2 SUB PUSH1 0x20 DUP4 ADD MSTORE PUSH2 0x206E DUP2 DUP9 PUSH2 0x11D4 JUMP JUMPDEST SWAP1 POP PUSH2 0x207D PUSH1 0x40 DUP4 ADD DUP8 PUSH2 0x120D JUMP JUMPDEST PUSH2 0x208A PUSH1 0x60 DUP4 ADD DUP7 PUSH2 0x120D JUMP JUMPDEST PUSH2 0x2097 PUSH1 0x80 DUP4 ADD DUP6 PUSH2 0x124E JUMP JUMPDEST PUSH2 0x20A4 PUSH1 0xA0 DUP4 ADD DUP5 PUSH2 0x124E JUMP JUMPDEST SWAP8 SWAP7 POP POP POP POP POP POP POP JUMP INVALID LOG2 PUSH5 0x6970667358 0x22 SLT KECCAK256 0xA8 TIMESTAMP EXP DUP8 0x2E OR 0x4D SWAP9 PUSH9 0xF81BB25E6A064D5DBC 0xD AND 0xEE JUMPI STATICCALL DUP4 0x49 0x1E 0x4C PUSH10 0xDCAC4A3064736F6C6343 STOP ADDMOD EQ STOP CALLER "},"methodIdentifiers":{"createFarmerStock(string,string,uint256,uint256)":"2d73a8a6","distributorBuy(string,string,uint256)":"38adec51","getStockHistory(string)":"cf55b728","sellStock(string,string,uint256,uint256,address)":"ee7db892","stocks(string)":"2efae33e"}}}}}